{
  "_format": "hh-sol-artifact-1",
  "contractName": "Escrow",
  "sourceName": "contracts/Escrow.sol",
  "abi": [
    {
      "inputs": [
        {
          "internalType": "address payable",
          "name": "_feeWallet",
          "type": "address"
        },
        {
          "internalType": "uint256",
          "name": "_duration",
          "type": "uint256"
        },
        {
          "internalType": "uint256",
          "name": "_amount",
          "type": "uint256"
        },
        {
          "internalType": "bytes32",
          "name": "_title",
          "type": "bytes32"
        },
        {
          "internalType": "address payable",
          "name": "_buyer",
          "type": "address"
        },
        {
          "internalType": "address payable",
          "name": "_seller",
          "type": "address"
        },
        {
          "internalType": "uint8",
          "name": "_feePercent",
          "type": "uint8"
        },
        {
          "internalType": "address[]",
          "name": "_handlers",
          "type": "address[]"
        }
      ],
      "stateMutability": "nonpayable",
      "type": "constructor"
    },
    {
      "inputs": [
        {
          "internalType": "address[]",
          "name": "_handlers",
          "type": "address[]"
        }
      ],
      "name": "addTrustedHandlers",
      "outputs": [],
      "stateMutability": "nonpayable",
      "type": "function"
    },
    {
      "inputs": [
        {
          "internalType": "address",
          "name": "",
          "type": "address"
        }
      ],
      "name": "areTrustedHandlers",
      "outputs": [
        {
          "internalType": "bool",
          "name": "",
          "type": "bool"
        }
      ],
      "stateMutability": "view",
      "type": "function"
    },
    {
      "inputs": [],
      "name": "buyerConfirmDelivery",
      "outputs": [],
      "stateMutability": "nonpayable",
      "type": "function"
    },
    {
      "inputs": [
        {
          "internalType": "uint256",
          "name": "_rejectDuration",
          "type": "uint256"
        }
      ],
      "name": "buyerRejectDelivery",
      "outputs": [],
      "stateMutability": "nonpayable",
      "type": "function"
    },
    {
      "inputs": [],
      "name": "cancel",
      "outputs": [],
      "stateMutability": "nonpayable",
      "type": "function"
    },
    {
      "inputs": [],
      "name": "feeWallet",
      "outputs": [
        {
          "internalType": "address payable",
          "name": "",
          "type": "address"
        }
      ],
      "stateMutability": "view",
      "type": "function"
    },
    {
      "inputs": [],
      "name": "getBalance",
      "outputs": [
        {
          "internalType": "uint256",
          "name": "",
          "type": "uint256"
        }
      ],
      "stateMutability": "view",
      "type": "function"
    },
    {
      "inputs": [],
      "name": "getDetails",
      "outputs": [
        {
          "components": [
            {
              "internalType": "enum Escrow.EscrowStatus",
              "name": "status",
              "type": "uint8"
            },
            {
              "internalType": "bytes32",
              "name": "title",
              "type": "bytes32"
            },
            {
              "internalType": "uint256",
              "name": "deadline",
              "type": "uint256"
            },
            {
              "internalType": "address payable",
              "name": "buyer",
              "type": "address"
            },
            {
              "internalType": "address payable",
              "name": "seller",
              "type": "address"
            },
            {
              "internalType": "uint256",
              "name": "requestRevisedDeadline",
              "type": "uint256"
            },
            {
              "internalType": "uint256",
              "name": "amount",
              "type": "uint256"
            },
            {
              "internalType": "address",
              "name": "escrowAddress",
              "type": "address"
            },
            {
              "internalType": "uint8",
              "name": "feePercent",
              "type": "uint8"
            }
          ],
          "internalType": "struct Escrow.EscrowDetail",
          "name": "",
          "type": "tuple"
        }
      ],
      "stateMutability": "view",
      "type": "function"
    },
    {
      "inputs": [],
      "name": "rejectCount",
      "outputs": [
        {
          "internalType": "uint256",
          "name": "",
          "type": "uint256"
        }
      ],
      "stateMutability": "view",
      "type": "function"
    },
    {
      "inputs": [],
      "name": "sellerApproveDeliveryRejection",
      "outputs": [],
      "stateMutability": "nonpayable",
      "type": "function"
    },
    {
      "inputs": [],
      "name": "sellerApproveLaunch",
      "outputs": [],
      "stateMutability": "nonpayable",
      "type": "function"
    },
    {
      "inputs": [],
      "name": "sellerMarkDelivered",
      "outputs": [],
      "stateMutability": "nonpayable",
      "type": "function"
    },
    {
      "inputs": [],
      "name": "sellerRejectDeliveryRejection",
      "outputs": [],
      "stateMutability": "nonpayable",
      "type": "function"
    },
    {
      "stateMutability": "payable",
      "type": "receive"
    }
  ],
  "bytecode": "0x60806040526000600a553480156200001657600080fd5b5060405162002c2138038062002c2183398181016040528101906200003c9190620007a8565b6201518087101562000085576040517f08c379a00000000000000000000000000000000000000000000000000000000081526004016200007c90620008f1565b60405180910390fd5b60008260ff161180156200009c575060648260ff16105b620000de576040517f08c379a0000000000000000000000000000000000000000000000000000000008152600401620000d59062000963565b60405180910390fd5b87600960006101000a81548173ffffffffffffffffffffffffffffffffffffffff021916908373ffffffffffffffffffffffffffffffffffffffff1602179055506001600b60003373ffffffffffffffffffffffffffffffffffffffff1673ffffffffffffffffffffffffffffffffffffffff16815260200190815260200160002060006101000a81548160ff02191690831515021790555062000188816200039660201b60201c565b60405180610120016040528060006006811115620001ab57620001aa62000985565b5b81526020018681526020018842620001c49190620009e3565b81526020018573ffffffffffffffffffffffffffffffffffffffff1681526020018473ffffffffffffffffffffffffffffffffffffffff168152602001600081526020018781526020013073ffffffffffffffffffffffffffffffffffffffff1681526020018360ff16815250600160008201518160000160006101000a81548160ff0219169083600681111562000261576200026062000985565b5b0217905550602082015181600101556040820151816002015560608201518160030160006101000a81548173ffffffffffffffffffffffffffffffffffffffff021916908373ffffffffffffffffffffffffffffffffffffffff16021790555060808201518160040160006101000a81548173ffffffffffffffffffffffffffffffffffffffff021916908373ffffffffffffffffffffffffffffffffffffffff16021790555060a0820151816005015560c0820151816006015560e08201518160070160006101000a81548173ffffffffffffffffffffffffffffffffffffffff021916908373ffffffffffffffffffffffffffffffffffffffff1602179055506101008201518160070160146101000a81548160ff021916908360ff160217905550905050505050505050505062000b0c565b600b60003373ffffffffffffffffffffffffffffffffffffffff1673ffffffffffffffffffffffffffffffffffffffff16815260200190815260200160002060009054906101000a900460ff1662000425576040517f08c379a00000000000000000000000000000000000000000000000000000000081526004016200041c9062000a6e565b60405180910390fd5b60005b8151811015620004bd576001600b60008484815181106200044e576200044d62000a90565b5b602002602001015173ffffffffffffffffffffffffffffffffffffffff1673ffffffffffffffffffffffffffffffffffffffff16815260200190815260200160002060006101000a81548160ff0219169083151502179055508080620004b49062000abf565b91505062000428565b5050565b6000604051905090565b600080fd5b600080fd5b600073ffffffffffffffffffffffffffffffffffffffff82169050919050565b60006200050282620004d5565b9050919050565b6200051481620004f5565b81146200052057600080fd5b50565b600081519050620005348162000509565b92915050565b6000819050919050565b6200054f816200053a565b81146200055b57600080fd5b50565b6000815190506200056f8162000544565b92915050565b6000819050919050565b6200058a8162000575565b81146200059657600080fd5b50565b600081519050620005aa816200057f565b92915050565b600060ff82169050919050565b620005c881620005b0565b8114620005d457600080fd5b50565b600081519050620005e881620005bd565b92915050565b600080fd5b6000601f19601f8301169050919050565b7f4e487b7100000000000000000000000000000000000000000000000000000000600052604160045260246000fd5b6200063e82620005f3565b810181811067ffffffffffffffff8211171562000660576200065f62000604565b5b80604052505050565b600062000675620004c1565b905062000683828262000633565b919050565b600067ffffffffffffffff821115620006a657620006a562000604565b5b602082029050602081019050919050565b600080fd5b6000620006c982620004d5565b9050919050565b620006db81620006bc565b8114620006e757600080fd5b50565b600081519050620006fb81620006d0565b92915050565b600062000718620007128462000688565b62000669565b905080838252602082019050602084028301858111156200073e576200073d620006b7565b5b835b818110156200076b5780620007568882620006ea565b84526020840193505060208101905062000740565b5050509392505050565b600082601f8301126200078d576200078c620005ee565b5b81516200079f84826020860162000701565b91505092915050565b600080600080600080600080610100898b031215620007cc57620007cb620004cb565b5b6000620007dc8b828c0162000523565b9850506020620007ef8b828c016200055e565b9750506040620008028b828c016200055e565b9650506060620008158b828c0162000599565b9550506080620008288b828c0162000523565b94505060a06200083b8b828c0162000523565b93505060c06200084e8b828c01620005d7565b92505060e089015167ffffffffffffffff811115620008725762000871620004d0565b5b620008808b828c0162000775565b9150509295985092959890939650565b600082825260208201905092915050565b7f494e56414c49445f4455524154494f4e00000000000000000000000000000000600082015250565b6000620008d960108362000890565b9150620008e682620008a1565b602082019050919050565b600060208201905081810360008301526200090c81620008ca565b9050919050565b7f494e56414c49445f4645455f50455243454e5400000000000000000000000000600082015250565b60006200094b60138362000890565b9150620009588262000913565b602082019050919050565b600060208201905081810360008301526200097e816200093c565b9050919050565b7f4e487b7100000000000000000000000000000000000000000000000000000000600052602160045260246000fd5b7f4e487b7100000000000000000000000000000000000000000000000000000000600052601160045260246000fd5b6000620009f0826200053a565b9150620009fd836200053a565b925082820190508082111562000a185762000a17620009b4565b5b92915050565b7f4f4e4c595f545255535445445f48414e444c4552535f414c4c4f574544000000600082015250565b600062000a56601d8362000890565b915062000a638262000a1e565b602082019050919050565b6000602082019050818103600083015262000a898162000a47565b9050919050565b7f4e487b7100000000000000000000000000000000000000000000000000000000600052603260045260246000fd5b600062000acc826200053a565b91507fffffffffffffffffffffffffffffffffffffffffffffffffffffffffffffffff820362000b015762000b00620009b4565b5b600182019050919050565b6121058062000b1c6000396000f3fe6080604052600436106100c65760003560e01c8063dc5939371161007f578063f21e0e9911610059578063f21e0e99146102ac578063f25f4b56146102c3578063fb6ff96e146102ee578063fbbf93a0146103195761017a565b8063dc59393714610241578063ea8a1af014610258578063f17171e91461026f5761017a565b806312065fe01461017f57806344ad8080146101aa5780634d7eb0bf146101c15780636c06f2ca146101d857806398b2d4fc146101ef5780639eb262f3146102185761017a565b3661017a576005600160000160009054906101000a900460ff1660068111156100f2576100f16113a5565b5b60ff1610610135576040517f08c379a000000000000000000000000000000000000000000000000000000000815260040161012c90611431565b60405180910390fd5b60003411610178576040517f08c379a000000000000000000000000000000000000000000000000000000000815260040161016f9061149d565b60405180910390fd5b005b600080fd5b34801561018b57600080fd5b50610194610344565b6040516101a191906114d6565b60405180910390f35b3480156101b657600080fd5b506101bf61034c565b005b3480156101cd57600080fd5b506101d66104fc565b005b3480156101e457600080fd5b506101ed610638565b005b3480156101fb57600080fd5b5061021660048036038101906102119190611531565b61082d565b005b34801561022457600080fd5b5061023f600480360381019061023a9190611715565b610a1c565b005b34801561024d57600080fd5b50610256610b3d565b005b34801561026457600080fd5b5061026d610c79565b005b34801561027b57600080fd5b506102966004803603810190610291919061175e565b610ea4565b6040516102a391906117a6565b60405180910390f35b3480156102b857600080fd5b506102c1610ec4565b005b3480156102cf57600080fd5b506102d861100e565b6040516102e591906117e2565b60405180910390f35b3480156102fa57600080fd5b50610303611034565b60405161031091906114d6565b60405180910390f35b34801561032557600080fd5b5061032e61103a565b60405161033b919061195e565b60405180910390f35b600047905090565b6000805414610390576040517f08c379a0000000000000000000000000000000000000000000000000000000008152600401610387906119c6565b60405180910390fd5b6000808154809291906103a290611a15565b9190505550600160030160009054906101000a900473ffffffffffffffffffffffffffffffffffffffff1673ffffffffffffffffffffffffffffffffffffffff163373ffffffffffffffffffffffffffffffffffffffff161461043a576040517f08c379a000000000000000000000000000000000000000000000000000000000815260040161043190611aa9565b60405180910390fd5b6003600681111561044e5761044d6113a5565b5b600160000160009054906101000a900460ff166006811115610473576104726113a5565b5b146104b3576040517f08c379a00000000000000000000000000000000000000000000000000000000081526004016104aa90611b15565b60405180910390fd5b6104e3600160040160009054906101000a900473ffffffffffffffffffffffffffffffffffffffff1660066111d7565b6000808154809291906104f590611b35565b9190505550565b600160040160009054906101000a900473ffffffffffffffffffffffffffffffffffffffff1673ffffffffffffffffffffffffffffffffffffffff163373ffffffffffffffffffffffffffffffffffffffff161461058f576040517f08c379a000000000000000000000000000000000000000000000000000000000815260040161058690611baa565b60405180910390fd5b600260068111156105a3576105a26113a5565b5b600160000160009054906101000a900460ff1660068111156105c8576105c76113a5565b5b14610608576040517f08c379a00000000000000000000000000000000000000000000000000000000081526004016105ff90611c16565b60405180910390fd5b6004600160000160006101000a81548160ff02191690836006811115610631576106306113a5565b5b0217905550565b600080541461067c576040517f08c379a0000000000000000000000000000000000000000000000000000000008152600401610673906119c6565b60405180910390fd5b60008081548092919061068e90611a15565b9190505550600160040160009054906101000a900473ffffffffffffffffffffffffffffffffffffffff1673ffffffffffffffffffffffffffffffffffffffff163373ffffffffffffffffffffffffffffffffffffffff1614610726576040517f08c379a000000000000000000000000000000000000000000000000000000000815260040161071d90611baa565b60405180910390fd5b6000600681111561073a576107396113a5565b5b600160000160009054906101000a900460ff16600681111561075f5761075e6113a5565b5b1461079f576040517f08c379a000000000000000000000000000000000000000000000000000000000815260040161079690611c82565b60405180910390fd5b6001600601544710156107e7576040517f08c379a00000000000000000000000000000000000000000000000000000000081526004016107de90611cee565b60405180910390fd5b60018060000160006101000a81548160ff0219169083600681111561080f5761080e6113a5565b5b021790555060008081548092919061082690611b35565b9190505550565b600160030160009054906101000a900473ffffffffffffffffffffffffffffffffffffffff1673ffffffffffffffffffffffffffffffffffffffff163373ffffffffffffffffffffffffffffffffffffffff16146108c0576040517f08c379a00000000000000000000000000000000000000000000000000000000081526004016108b790611aa9565b60405180910390fd5b600360068111156108d4576108d36113a5565b5b600160000160009054906101000a900460ff1660068111156108f9576108f86113a5565b5b14610939576040517f08c379a000000000000000000000000000000000000000000000000000000000815260040161093090611b15565b60405180910390fd5b6201518081101561097f576040517f08c379a000000000000000000000000000000000000000000000000000000000815260040161097690611d5a565b60405180910390fd5b600a600081548092919061099290611a15565b91905055506001600a5411156109d5576004600160000160006101000a81548160ff021916908360068111156109cb576109ca6113a5565b5b0217905550610a19565b6002600160000160006101000a81548160ff021916908360068111156109fe576109fd6113a5565b5b02179055508042610a0f9190611d7a565b6001600501819055505b50565b600b60003373ffffffffffffffffffffffffffffffffffffffff1673ffffffffffffffffffffffffffffffffffffffff16815260200190815260200160002060009054906101000a900460ff16610aa8576040517f08c379a0000000000000000000000000000000000000000000000000000000008152600401610a9f90611dfa565b60405180910390fd5b60005b8151811015610b39576001600b6000848481518110610acd57610acc611e1a565b5b602002602001015173ffffffffffffffffffffffffffffffffffffffff1673ffffffffffffffffffffffffffffffffffffffff16815260200190815260200160002060006101000a81548160ff0219169083151502179055508080610b3190611a15565b915050610aab565b5050565b600160040160009054906101000a900473ffffffffffffffffffffffffffffffffffffffff1673ffffffffffffffffffffffffffffffffffffffff163373ffffffffffffffffffffffffffffffffffffffff1614610bd0576040517f08c379a0000000000000000000000000000000000000000000000000000000008152600401610bc790611baa565b60405180910390fd5b60016006811115610be457610be36113a5565b5b600160000160009054906101000a900460ff166006811115610c0957610c086113a5565b5b14610c49576040517f08c379a0000000000000000000000000000000000000000000000000000000008152600401610c4090611e95565b60405180910390fd5b6003600160000160006101000a81548160ff02191690836006811115610c7257610c716113a5565b5b0217905550565b6003600160000160009054906101000a900460ff166006811115610ca057610c9f6113a5565b5b60ff1610610ce3576040517f08c379a0000000000000000000000000000000000000000000000000000000008152600401610cda90611f01565b60405180910390fd5b600160030160009054906101000a900473ffffffffffffffffffffffffffffffffffffffff1673ffffffffffffffffffffffffffffffffffffffff163373ffffffffffffffffffffffffffffffffffffffff161480610d925750600160040160009054906101000a900473ffffffffffffffffffffffffffffffffffffffff1673ffffffffffffffffffffffffffffffffffffffff163373ffffffffffffffffffffffffffffffffffffffff16145b610dd1576040517f08c379a0000000000000000000000000000000000000000000000000000000008152600401610dc890611f6d565b60405180910390fd5b600160030160009054906101000a900473ffffffffffffffffffffffffffffffffffffffff1673ffffffffffffffffffffffffffffffffffffffff163373ffffffffffffffffffffffffffffffffffffffff1603610e7257426001600201541115610e71576040517f08c379a0000000000000000000000000000000000000000000000000000000008152600401610e6890611fd9565b60405180910390fd5b5b610ea2600160030160009054906101000a900473ffffffffffffffffffffffffffffffffffffffff1660056111d7565b565b600b6020528060005260406000206000915054906101000a900460ff1681565b600160040160009054906101000a900473ffffffffffffffffffffffffffffffffffffffff1673ffffffffffffffffffffffffffffffffffffffff163373ffffffffffffffffffffffffffffffffffffffff1614610f57576040517f08c379a0000000000000000000000000000000000000000000000000000000008152600401610f4e90611baa565b60405180910390fd5b60026006811115610f6b57610f6a6113a5565b5b600160000160009054906101000a900460ff166006811115610f9057610f8f6113a5565b5b14610fd0576040517f08c379a0000000000000000000000000000000000000000000000000000000008152600401610fc790611c16565b60405180910390fd5b60018060000160006101000a81548160ff02191690836006811115610ff857610ff76113a5565b5b0217905550600160050154600160020181905550565b600960009054906101000a900473ffffffffffffffffffffffffffffffffffffffff1681565b600a5481565b6110426112ff565b6001604051806101200160405290816000820160009054906101000a900460ff166006811115611075576110746113a5565b5b6006811115611087576110866113a5565b5b815260200160018201548152602001600282015481526020016003820160009054906101000a900473ffffffffffffffffffffffffffffffffffffffff1673ffffffffffffffffffffffffffffffffffffffff1673ffffffffffffffffffffffffffffffffffffffff1681526020016004820160009054906101000a900473ffffffffffffffffffffffffffffffffffffffff1673ffffffffffffffffffffffffffffffffffffffff1673ffffffffffffffffffffffffffffffffffffffff16815260200160058201548152602001600682015481526020016007820160009054906101000a900473ffffffffffffffffffffffffffffffffffffffff1673ffffffffffffffffffffffffffffffffffffffff1673ffffffffffffffffffffffffffffffffffffffff1681526020016007820160149054906101000a900460ff1660ff1660ff1681525050905090565b60006064600160070160149054906101000a900460ff1660ff166001600601546112019190611ff9565b61120b919061206a565b9050600960009054906101000a900473ffffffffffffffffffffffffffffffffffffffff1673ffffffffffffffffffffffffffffffffffffffff166108fc829081150290604051600060405180830381858888f19350505050158015611275573d6000803e3d6000fd5b508273ffffffffffffffffffffffffffffffffffffffff166108fc826001600601546112a1919061209b565b9081150290604051600060405180830381858888f193505050501580156112cc573d6000803e3d6000fd5b5081600160000160006101000a81548160ff021916908360068111156112f5576112f46113a5565b5b0217905550505050565b6040518061012001604052806000600681111561131f5761131e6113a5565b5b81526020016000801916815260200160008152602001600073ffffffffffffffffffffffffffffffffffffffff168152602001600073ffffffffffffffffffffffffffffffffffffffff1681526020016000815260200160008152602001600073ffffffffffffffffffffffffffffffffffffffff168152602001600060ff1681525090565b7f4e487b7100000000000000000000000000000000000000000000000000000000600052602160045260246000fd5b600082825260208201905092915050565b7f4e4f545f454c494749424c450000000000000000000000000000000000000000600082015250565b600061141b600c836113d4565b9150611426826113e5565b602082019050919050565b6000602082019050818103600083015261144a8161140e565b9050919050565b7f494e56414c49445f414d4f554e54000000000000000000000000000000000000600082015250565b6000611487600e836113d4565b915061149282611451565b602082019050919050565b600060208201905081810360008301526114b68161147a565b9050919050565b6000819050919050565b6114d0816114bd565b82525050565b60006020820190506114eb60008301846114c7565b92915050565b6000604051905090565b600080fd5b600080fd5b61150e816114bd565b811461151957600080fd5b50565b60008135905061152b81611505565b92915050565b600060208284031215611547576115466114fb565b5b60006115558482850161151c565b91505092915050565b600080fd5b6000601f19601f8301169050919050565b7f4e487b7100000000000000000000000000000000000000000000000000000000600052604160045260246000fd5b6115ac82611563565b810181811067ffffffffffffffff821117156115cb576115ca611574565b5b80604052505050565b60006115de6114f1565b90506115ea82826115a3565b919050565b600067ffffffffffffffff82111561160a57611609611574565b5b602082029050602081019050919050565b600080fd5b600073ffffffffffffffffffffffffffffffffffffffff82169050919050565b600061164b82611620565b9050919050565b61165b81611640565b811461166657600080fd5b50565b60008135905061167881611652565b92915050565b600061169161168c846115ef565b6115d4565b905080838252602082019050602084028301858111156116b4576116b361161b565b5b835b818110156116dd57806116c98882611669565b8452602084019350506020810190506116b6565b5050509392505050565b600082601f8301126116fc576116fb61155e565b5b813561170c84826020860161167e565b91505092915050565b60006020828403121561172b5761172a6114fb565b5b600082013567ffffffffffffffff81111561174957611748611500565b5b611755848285016116e7565b91505092915050565b600060208284031215611774576117736114fb565b5b600061178284828501611669565b91505092915050565b60008115159050919050565b6117a08161178b565b82525050565b60006020820190506117bb6000830184611797565b92915050565b60006117cc82611620565b9050919050565b6117dc816117c1565b82525050565b60006020820190506117f760008301846117d3565b92915050565b6007811061180e5761180d6113a5565b5b50565b600081905061181f826117fd565b919050565b600061182f82611811565b9050919050565b61183f81611824565b82525050565b6000819050919050565b61185881611845565b82525050565b611867816114bd565b82525050565b611876816117c1565b82525050565b61188581611640565b82525050565b600060ff82169050919050565b6118a18161188b565b82525050565b610120820160008201516118be6000850182611836565b5060208201516118d1602085018261184f565b5060408201516118e4604085018261185e565b5060608201516118f7606085018261186d565b50608082015161190a608085018261186d565b5060a082015161191d60a085018261185e565b5060c082015161193060c085018261185e565b5060e082015161194360e085018261187c565b50610100820151611958610100850182611898565b50505050565b60006101208201905061197460008301846118a7565b92915050565b7f5265656e7472616e637920646574656374656400000000000000000000000000600082015250565b60006119b06013836113d4565b91506119bb8261197a565b602082019050919050565b600060208201905081810360008301526119df816119a3565b9050919050565b7f4e487b7100000000000000000000000000000000000000000000000000000000600052601160045260246000fd5b6000611a20826114bd565b91507fffffffffffffffffffffffffffffffffffffffffffffffffffffffffffffffff8203611a5257611a516119e6565b5b600182019050919050565b7f4f4e4c595f42555945525f414c4c4f5745440000000000000000000000000000600082015250565b6000611a936012836113d4565b9150611a9e82611a5d565b602082019050919050565b60006020820190508181036000830152611ac281611a86565b9050919050565b7f4e4f545f494e5f44454c4956455245445f535441545553000000000000000000600082015250565b6000611aff6017836113d4565b9150611b0a82611ac9565b602082019050919050565b60006020820190508181036000830152611b2e81611af2565b9050919050565b6000611b40826114bd565b915060008203611b5357611b526119e6565b5b600182039050919050565b7f4f4e4c595f53454c4c45525f414c4c4f57454400000000000000000000000000600082015250565b6000611b946013836113d4565b9150611b9f82611b5e565b602082019050919050565b60006020820190508181036000830152611bc381611b87565b9050919050565b7f4e4f545f494e5f524551554553545f524556495345445f535441545553000000600082015250565b6000611c00601d836113d4565b9150611c0b82611bca565b602082019050919050565b60006020820190508181036000830152611c2f81611bf3565b9050919050565b7f4e4f545f494e5f4c41554e434845445f53544154555300000000000000000000600082015250565b6000611c6c6016836113d4565b9150611c7782611c36565b602082019050919050565b60006020820190508181036000830152611c9b81611c5f565b9050919050565b7f494e53554646494349454e545f46554e44530000000000000000000000000000600082015250565b6000611cd86012836113d4565b9150611ce382611ca2565b602082019050919050565b60006020820190508181036000830152611d0781611ccb565b9050919050565b7f494e56414c49445f52454a4543545f4455524154494f4e000000000000000000600082015250565b6000611d446017836113d4565b9150611d4f82611d0e565b602082019050919050565b60006020820190508181036000830152611d7381611d37565b9050919050565b6000611d85826114bd565b9150611d90836114bd565b9250828201905080821115611da857611da76119e6565b5b92915050565b7f4f4e4c595f545255535445445f48414e444c4552535f414c4c4f574544000000600082015250565b6000611de4601d836113d4565b9150611def82611dae565b602082019050919050565b60006020820190508181036000830152611e1381611dd7565b9050919050565b7f4e487b7100000000000000000000000000000000000000000000000000000000600052603260045260246000fd5b7f4e4f545f494e5f4f4e474f494e475f5354415455530000000000000000000000600082015250565b6000611e7f6015836113d4565b9150611e8a82611e49565b602082019050919050565b60006020820190508181036000830152611eae81611e72565b9050919050565b7f4e4f545f454c494749424c455f464f525f43414e43454c4c4154494f4e000000600082015250565b6000611eeb601d836113d4565b9150611ef682611eb5565b602082019050919050565b60006020820190508181036000830152611f1a81611ede565b9050919050565b7f4f4e4c595f42555945525f4f525f53454c4c45525f414c4c4f57454400000000600082015250565b6000611f57601c836113d4565b9150611f6282611f21565b602082019050919050565b60006020820190508181036000830152611f8681611f4a565b9050919050565b7f5f5f5f444541444c494e455f4e4f545f455850495245445f5f5f000000000000600082015250565b6000611fc3601a836113d4565b9150611fce82611f8d565b602082019050919050565b60006020820190508181036000830152611ff281611fb6565b9050919050565b6000612004826114bd565b915061200f836114bd565b925082820261201d816114bd565b91508282048414831517612034576120336119e6565b5b5092915050565b7f4e487b7100000000000000000000000000000000000000000000000000000000600052601260045260246000fd5b6000612075826114bd565b9150612080836114bd565b9250826120905761208f61203b565b5b828204905092915050565b60006120a6826114bd565b91506120b1836114bd565b92508282039050818111156120c9576120c86119e6565b5b9291505056fea2646970667358221220f62d4ce1ba5b37b28ea3513b70c5ff140da9acb506749765e52fbb4616494db364736f6c63430008130033",
  "linkReferences": {},
  "deployedLinkReferences": {}
}