{
  "_format": "hh-sol-artifact-1",
  "contractName": "EscrowFactory",
  "sourceName": "contracts/EscrowFactory.sol",
  "abi": [
    {
      "inputs": [
        {
          "internalType": "address",
          "name": "_myAddress",
          "type": "address"
        },
        {
          "internalType": "address",
          "name": "_feeWalletAddress",
          "type": "address"
        }
      ],
      "stateMutability": "nonpayable",
      "type": "constructor"
    },
    {
      "anonymous": false,
      "inputs": [
        {
          "indexed": true,
          "internalType": "address",
          "name": "escrowAddress",
          "type": "address"
        }
      ],
      "name": "Created",
      "type": "event"
    },
    {
      "inputs": [],
      "name": "TRUSTED",
      "outputs": [
        {
          "internalType": "address",
          "name": "",
          "type": "address"
        }
      ],
      "stateMutability": "view",
      "type": "function"
    },
    {
      "inputs": [],
      "name": "counter",
      "outputs": [
        {
          "internalType": "uint256",
          "name": "",
          "type": "uint256"
        }
      ],
      "stateMutability": "view",
      "type": "function"
    },
    {
      "inputs": [
        {
          "internalType": "address payable",
          "name": "seller",
          "type": "address"
        },
        {
          "internalType": "uint256",
          "name": "amount",
          "type": "uint256"
        },
        {
          "internalType": "bytes32",
          "name": "title",
          "type": "bytes32"
        },
        {
          "internalType": "uint256",
          "name": "duration",
          "type": "uint256"
        }
      ],
      "name": "createEscrow",
      "outputs": [
        {
          "internalType": "address",
          "name": "",
          "type": "address"
        }
      ],
      "stateMutability": "payable",
      "type": "function"
    },
    {
      "inputs": [],
      "name": "escrow",
      "outputs": [
        {
          "internalType": "address payable",
          "name": "",
          "type": "address"
        }
      ],
      "stateMutability": "view",
      "type": "function"
    },
    {
      "inputs": [
        {
          "internalType": "uint256",
          "name": "",
          "type": "uint256"
        }
      ],
      "name": "escrows",
      "outputs": [
        {
          "internalType": "address",
          "name": "",
          "type": "address"
        }
      ],
      "stateMutability": "view",
      "type": "function"
    },
    {
      "inputs": [],
      "name": "feePercent",
      "outputs": [
        {
          "internalType": "uint8",
          "name": "",
          "type": "uint8"
        }
      ],
      "stateMutability": "view",
      "type": "function"
    },
    {
      "inputs": [],
      "name": "feeWalletAddress",
      "outputs": [
        {
          "internalType": "address",
          "name": "",
          "type": "address"
        }
      ],
      "stateMutability": "view",
      "type": "function"
    },
    {
      "inputs": [],
      "name": "myAddress",
      "outputs": [
        {
          "internalType": "address",
          "name": "",
          "type": "address"
        }
      ],
      "stateMutability": "view",
      "type": "function"
    },
    {
      "inputs": [
        {
          "internalType": "address",
          "name": "",
          "type": "address"
        },
        {
          "internalType": "uint256",
          "name": "",
          "type": "uint256"
        }
      ],
      "name": "myEscrows",
      "outputs": [
        {
          "internalType": "address",
          "name": "",
          "type": "address"
        }
      ],
      "stateMutability": "view",
      "type": "function"
    },
    {
      "inputs": [
        {
          "internalType": "address payable",
          "name": "to",
          "type": "address"
        },
        {
          "internalType": "uint256",
          "name": "amount",
          "type": "uint256"
        }
      ],
      "name": "withdraw",
      "outputs": [],
      "stateMutability": "nonpayable",
      "type": "function"
    }
  ],
  "bytecode": "0x60806040523480156200001157600080fd5b506040516200433e3803806200433e83398181016040528101906200003791906200012a565b81600360006101000a81548173ffffffffffffffffffffffffffffffffffffffff021916908373ffffffffffffffffffffffffffffffffffffffff160217905550806000806101000a81548173ffffffffffffffffffffffffffffffffffffffff021916908373ffffffffffffffffffffffffffffffffffffffff160217905550505062000171565b600080fd5b600073ffffffffffffffffffffffffffffffffffffffff82169050919050565b6000620000f282620000c5565b9050919050565b6200010481620000e5565b81146200011057600080fd5b50565b6000815190506200012481620000f9565b92915050565b60008060408385031215620001445762000143620000c0565b5b6000620001548582860162000113565b9250506020620001678582860162000113565b9150509250929050565b6141bd80620001816000396000f3fe6080604052600436106200009e5760003560e01c80637b0de07211620000615780637b0de07214620001ad5780637fd6f15c14620001f1578063d02f8c3a1462000221578063e2fdcc171462000251578063f3fef3a31462000281576200009e565b8063012f52ee14620000a357806308a300cb14620000e757806326b85ee1146200011757806361bc221a14620001475780637766b03f1462000177575b600080fd5b348015620000b057600080fd5b50620000cf6004803603810190620000c9919062000c6d565b620002af565b604051620000de919062000ce4565b60405180910390f35b348015620000f457600080fd5b50620000ff620002ef565b6040516200010e919062000ce4565b60405180910390f35b3480156200012457600080fd5b506200012f62000313565b6040516200013e919062000ce4565b60405180910390f35b3480156200015457600080fd5b506200015f62000339565b6040516200016e919062000d12565b60405180910390f35b6200019560048036038101906200018f919062000daf565b6200033f565b604051620001a4919062000ce4565b60405180910390f35b348015620001ba57600080fd5b50620001d96004803603810190620001d3919062000e52565b620009a0565b604051620001e8919062000ce4565b60405180910390f35b348015620001fe57600080fd5b5062000209620009ef565b60405162000218919062000eb7565b60405180910390f35b3480156200022e57600080fd5b506200023962000a02565b60405162000248919062000ce4565b60405180910390f35b3480156200025e57600080fd5b506200026962000a1a565b60405162000278919062000ee5565b60405180910390f35b3480156200028e57600080fd5b50620002ad6004803603810190620002a7919062000f02565b62000a40565b005b60028181548110620002c057600080fd5b906000526020600020016000915054906101000a900473ffffffffffffffffffffffffffffffffffffffff1681565b60008054906101000a900473ffffffffffffffffffffffffffffffffffffffff1681565b600360009054906101000a900473ffffffffffffffffffffffffffffffffffffffff1681565b60015481565b60008473ffffffffffffffffffffffffffffffffffffffff163373ffffffffffffffffffffffffffffffffffffffff1603620003b2576040517f08c379a0000000000000000000000000000000000000000000000000000000008152600401620003a99062000faa565b60405180910390fd5b600073ffffffffffffffffffffffffffffffffffffffff168573ffffffffffffffffffffffffffffffffffffffff160362000424576040517f08c379a00000000000000000000000000000000000000000000000000000000081526004016200041b906200101c565b60405180910390fd5b620151808210156200046d576040517f08c379a000000000000000000000000000000000000000000000000000000000815260040162000464906200108e565b60405180910390fd5b833414620004b2576040517f08c379a0000000000000000000000000000000000000000000000000000000008152600401620004a99062001100565b60405180910390fd5b6000620004f06064620004e1600060149054906101000a900460ff1660ff168862000ad990919063ffffffff16565b62000af190919063ffffffff16565b90506200053d8160008054906101000a900473ffffffffffffffffffffffffffffffffffffffff1673ffffffffffffffffffffffffffffffffffffffff1662000b0990919063ffffffff16565b6000600167ffffffffffffffff8111156200055d576200055c62001122565b5b6040519080825280602002602001820160405280156200058c5781602001602082028036833780820191505090505b50905073ecbd44299c33d035511673ec65eb3e7d7658c76681600081518110620005bb57620005ba62001151565b5b602002602001019073ffffffffffffffffffffffffffffffffffffffff16908173ffffffffffffffffffffffffffffffffffffffff168152505060008060009054906101000a900473ffffffffffffffffffffffffffffffffffffffff16856200062f858a62000c0790919063ffffffff16565b88338c600060149054906101000a900460ff1688604051620006519062000c1f565b620006649897969594939291906200125f565b604051809103906000f08015801562000681573d6000803e3d6000fd5b509050600460009054906101000a900473ffffffffffffffffffffffffffffffffffffffff1673ffffffffffffffffffffffffffffffffffffffff166108fc620006d5858a62000c0790919063ffffffff16565b9081150290604051600060405180830381858888f1935050505015801562000701573d6000803e3d6000fd5b506002600460009054906101000a900473ffffffffffffffffffffffffffffffffffffffff169080600181540180825580915050600190039060005260206000200160009091909190916101000a81548173ffffffffffffffffffffffffffffffffffffffff021916908373ffffffffffffffffffffffffffffffffffffffff160217905550600560003373ffffffffffffffffffffffffffffffffffffffff1673ffffffffffffffffffffffffffffffffffffffff168152602001908152602001600020600460009054906101000a900473ffffffffffffffffffffffffffffffffffffffff169080600181540180825580915050600190039060005260206000200160009091909190916101000a81548173ffffffffffffffffffffffffffffffffffffffff021916908373ffffffffffffffffffffffffffffffffffffffff160217905550600560008973ffffffffffffffffffffffffffffffffffffffff1673ffffffffffffffffffffffffffffffffffffffff168152602001908152602001600020600460009054906101000a900473ffffffffffffffffffffffffffffffffffffffff169080600181540180825580915050600190039060005260206000200160009091909190916101000a81548173ffffffffffffffffffffffffffffffffffffffff021916908373ffffffffffffffffffffffffffffffffffffffff160217905550600460009054906101000a900473ffffffffffffffffffffffffffffffffffffffff1673ffffffffffffffffffffffffffffffffffffffff167f1449abf21e49fd025f33495e77f7b1461caefdd3d4bb646424a3f445c4576a5b60405160405180910390a2600460009054906101000a900473ffffffffffffffffffffffffffffffffffffffff169350505050949350505050565b60056020528160005260406000208181548110620009bd57600080fd5b906000526020600020016000915091509054906101000a900473ffffffffffffffffffffffffffffffffffffffff1681565b600060149054906101000a900460ff1681565b73ecbd44299c33d035511673ec65eb3e7d7658c76681565b600460009054906101000a900473ffffffffffffffffffffffffffffffffffffffff1681565b73ecbd44299c33d035511673ec65eb3e7d7658c76673ffffffffffffffffffffffffffffffffffffffff163373ffffffffffffffffffffffffffffffffffffffff161462000a8d57600080fd5b8173ffffffffffffffffffffffffffffffffffffffff166108fc829081150290604051600060405180830381858888f1935050505015801562000ad4573d6000803e3d6000fd5b505050565b6000818362000ae9919062001323565b905092915050565b6000818362000b0191906200139d565b905092915050565b8047101562000b4f576040517f08c379a000000000000000000000000000000000000000000000000000000000815260040162000b469062001425565b60405180910390fd5b60008273ffffffffffffffffffffffffffffffffffffffff168260405162000b77906200147c565b60006040518083038185875af1925050503d806000811462000bb6576040519150601f19603f3d011682016040523d82523d6000602084013e62000bbb565b606091505b505090508062000c02576040517f08c379a000000000000000000000000000000000000000000000000000000000815260040162000bf99062001509565b60405180910390fd5b505050565b6000818362000c1791906200152b565b905092915050565b612c21806200156783390190565b600080fd5b6000819050919050565b62000c478162000c32565b811462000c5357600080fd5b50565b60008135905062000c678162000c3c565b92915050565b60006020828403121562000c865762000c8562000c2d565b5b600062000c968482850162000c56565b91505092915050565b600073ffffffffffffffffffffffffffffffffffffffff82169050919050565b600062000ccc8262000c9f565b9050919050565b62000cde8162000cbf565b82525050565b600060208201905062000cfb600083018462000cd3565b92915050565b62000d0c8162000c32565b82525050565b600060208201905062000d29600083018462000d01565b92915050565b600062000d3c8262000c9f565b9050919050565b62000d4e8162000d2f565b811462000d5a57600080fd5b50565b60008135905062000d6e8162000d43565b92915050565b6000819050919050565b62000d898162000d74565b811462000d9557600080fd5b50565b60008135905062000da98162000d7e565b92915050565b6000806000806080858703121562000dcc5762000dcb62000c2d565b5b600062000ddc8782880162000d5d565b945050602062000def8782880162000c56565b935050604062000e028782880162000d98565b925050606062000e158782880162000c56565b91505092959194509250565b62000e2c8162000cbf565b811462000e3857600080fd5b50565b60008135905062000e4c8162000e21565b92915050565b6000806040838503121562000e6c5762000e6b62000c2d565b5b600062000e7c8582860162000e3b565b925050602062000e8f8582860162000c56565b9150509250929050565b600060ff82169050919050565b62000eb18162000e99565b82525050565b600060208201905062000ece600083018462000ea6565b92915050565b62000edf8162000d2f565b82525050565b600060208201905062000efc600083018462000ed4565b92915050565b6000806040838503121562000f1c5762000f1b62000c2d565b5b600062000f2c8582860162000d5d565b925050602062000f3f8582860162000c56565b9150509250929050565b600082825260208201905092915050565b7f53656c6c65722063616e6e6f7420626520657363726f772063726561746f7200600082015250565b600062000f92601f8362000f49565b915062000f9f8262000f5a565b602082019050919050565b6000602082019050818103600083015262000fc58162000f83565b9050919050565b7f496e76616c69642073656c6c6572206164647265737300000000000000000000600082015250565b60006200100460168362000f49565b9150620010118262000fcc565b602082019050919050565b60006020820190508181036000830152620010378162000ff5565b9050919050565b7f4475726174696f6e206d757374206265206174206c6561737420312064617900600082015250565b600062001076601f8362000f49565b915062001083826200103e565b602082019050919050565b60006020820190508181036000830152620010a98162001067565b9050919050565b7f56616c7565206d69736d61746368000000000000000000000000000000000000600082015250565b6000620010e8600e8362000f49565b9150620010f582620010b0565b602082019050919050565b600060208201905081810360008301526200111b81620010d9565b9050919050565b7f4e487b7100000000000000000000000000000000000000000000000000000000600052604160045260246000fd5b7f4e487b7100000000000000000000000000000000000000000000000000000000600052603260045260246000fd5b6200118b8162000d74565b82525050565b600081519050919050565b600082825260208201905092915050565b6000819050602082019050919050565b620011c88162000cbf565b82525050565b6000620011dc8383620011bd565b60208301905092915050565b6000602082019050919050565b6000620012028262001191565b6200120e81856200119c565b93506200121b83620011ad565b8060005b8381101562001252578151620012368882620011ce565b97506200124383620011e8565b9250506001810190506200121f565b5085935050505092915050565b60006101008201905062001277600083018b62000ed4565b62001286602083018a62000d01565b62001295604083018962000d01565b620012a4606083018862001180565b620012b3608083018762000ed4565b620012c260a083018662000ed4565b620012d160c083018562000ea6565b81810360e0830152620012e58184620011f5565b90509998505050505050505050565b7f4e487b7100000000000000000000000000000000000000000000000000000000600052601160045260246000fd5b6000620013308262000c32565b91506200133d8362000c32565b92508282026200134d8162000c32565b91508282048414831517620013675762001366620012f4565b5b5092915050565b7f4e487b7100000000000000000000000000000000000000000000000000000000600052601260045260246000fd5b6000620013aa8262000c32565b9150620013b78362000c32565b925082620013ca57620013c96200136e565b5b828204905092915050565b7f416464726573733a20696e73756666696369656e742062616c616e6365000000600082015250565b60006200140d601d8362000f49565b91506200141a82620013d5565b602082019050919050565b600060208201905081810360008301526200144081620013fe565b9050919050565b600081905092915050565b50565b60006200146460008362001447565b9150620014718262001452565b600082019050919050565b6000620014898262001455565b9150819050919050565b7f416464726573733a20756e61626c6520746f2073656e642076616c75652c207260008201527f6563697069656e74206d61792068617665207265766572746564000000000000602082015250565b6000620014f1603a8362000f49565b9150620014fe8262001493565b604082019050919050565b600060208201905081810360008301526200152481620014e2565b9050919050565b6000620015388262000c32565b9150620015458362000c32565b925082820390508181111562001560576200155f620012f4565b5b9291505056fe60806040526000600a553480156200001657600080fd5b5060405162002c2138038062002c2183398181016040528101906200003c9190620007a8565b6201518087101562000085576040517f08c379a00000000000000000000000000000000000000000000000000000000081526004016200007c90620008f1565b60405180910390fd5b60008260ff161180156200009c575060648260ff16105b620000de576040517f08c379a0000000000000000000000000000000000000000000000000000000008152600401620000d59062000963565b60405180910390fd5b87600960006101000a81548173ffffffffffffffffffffffffffffffffffffffff021916908373ffffffffffffffffffffffffffffffffffffffff1602179055506001600b60003373ffffffffffffffffffffffffffffffffffffffff1673ffffffffffffffffffffffffffffffffffffffff16815260200190815260200160002060006101000a81548160ff02191690831515021790555062000188816200039660201b60201c565b60405180610120016040528060006006811115620001ab57620001aa62000985565b5b81526020018681526020018842620001c49190620009e3565b81526020018573ffffffffffffffffffffffffffffffffffffffff1681526020018473ffffffffffffffffffffffffffffffffffffffff168152602001600081526020018781526020013073ffffffffffffffffffffffffffffffffffffffff1681526020018360ff16815250600160008201518160000160006101000a81548160ff0219169083600681111562000261576200026062000985565b5b0217905550602082015181600101556040820151816002015560608201518160030160006101000a81548173ffffffffffffffffffffffffffffffffffffffff021916908373ffffffffffffffffffffffffffffffffffffffff16021790555060808201518160040160006101000a81548173ffffffffffffffffffffffffffffffffffffffff021916908373ffffffffffffffffffffffffffffffffffffffff16021790555060a0820151816005015560c0820151816006015560e08201518160070160006101000a81548173ffffffffffffffffffffffffffffffffffffffff021916908373ffffffffffffffffffffffffffffffffffffffff1602179055506101008201518160070160146101000a81548160ff021916908360ff160217905550905050505050505050505062000b0c565b600b60003373ffffffffffffffffffffffffffffffffffffffff1673ffffffffffffffffffffffffffffffffffffffff16815260200190815260200160002060009054906101000a900460ff1662000425576040517f08c379a00000000000000000000000000000000000000000000000000000000081526004016200041c9062000a6e565b60405180910390fd5b60005b8151811015620004bd576001600b60008484815181106200044e576200044d62000a90565b5b602002602001015173ffffffffffffffffffffffffffffffffffffffff1673ffffffffffffffffffffffffffffffffffffffff16815260200190815260200160002060006101000a81548160ff0219169083151502179055508080620004b49062000abf565b91505062000428565b5050565b6000604051905090565b600080fd5b600080fd5b600073ffffffffffffffffffffffffffffffffffffffff82169050919050565b60006200050282620004d5565b9050919050565b6200051481620004f5565b81146200052057600080fd5b50565b600081519050620005348162000509565b92915050565b6000819050919050565b6200054f816200053a565b81146200055b57600080fd5b50565b6000815190506200056f8162000544565b92915050565b6000819050919050565b6200058a8162000575565b81146200059657600080fd5b50565b600081519050620005aa816200057f565b92915050565b600060ff82169050919050565b620005c881620005b0565b8114620005d457600080fd5b50565b600081519050620005e881620005bd565b92915050565b600080fd5b6000601f19601f8301169050919050565b7f4e487b7100000000000000000000000000000000000000000000000000000000600052604160045260246000fd5b6200063e82620005f3565b810181811067ffffffffffffffff8211171562000660576200065f62000604565b5b80604052505050565b600062000675620004c1565b905062000683828262000633565b919050565b600067ffffffffffffffff821115620006a657620006a562000604565b5b602082029050602081019050919050565b600080fd5b6000620006c982620004d5565b9050919050565b620006db81620006bc565b8114620006e757600080fd5b50565b600081519050620006fb81620006d0565b92915050565b600062000718620007128462000688565b62000669565b905080838252602082019050602084028301858111156200073e576200073d620006b7565b5b835b818110156200076b5780620007568882620006ea565b84526020840193505060208101905062000740565b5050509392505050565b600082601f8301126200078d576200078c620005ee565b5b81516200079f84826020860162000701565b91505092915050565b600080600080600080600080610100898b031215620007cc57620007cb620004cb565b5b6000620007dc8b828c0162000523565b9850506020620007ef8b828c016200055e565b9750506040620008028b828c016200055e565b9650506060620008158b828c0162000599565b9550506080620008288b828c0162000523565b94505060a06200083b8b828c0162000523565b93505060c06200084e8b828c01620005d7565b92505060e089015167ffffffffffffffff811115620008725762000871620004d0565b5b620008808b828c0162000775565b9150509295985092959890939650565b600082825260208201905092915050565b7f494e56414c49445f4455524154494f4e00000000000000000000000000000000600082015250565b6000620008d960108362000890565b9150620008e682620008a1565b602082019050919050565b600060208201905081810360008301526200090c81620008ca565b9050919050565b7f494e56414c49445f4645455f50455243454e5400000000000000000000000000600082015250565b60006200094b60138362000890565b9150620009588262000913565b602082019050919050565b600060208201905081810360008301526200097e816200093c565b9050919050565b7f4e487b7100000000000000000000000000000000000000000000000000000000600052602160045260246000fd5b7f4e487b7100000000000000000000000000000000000000000000000000000000600052601160045260246000fd5b6000620009f0826200053a565b9150620009fd836200053a565b925082820190508082111562000a185762000a17620009b4565b5b92915050565b7f4f4e4c595f545255535445445f48414e444c4552535f414c4c4f574544000000600082015250565b600062000a56601d8362000890565b915062000a638262000a1e565b602082019050919050565b6000602082019050818103600083015262000a898162000a47565b9050919050565b7f4e487b7100000000000000000000000000000000000000000000000000000000600052603260045260246000fd5b600062000acc826200053a565b91507fffffffffffffffffffffffffffffffffffffffffffffffffffffffffffffffff820362000b015762000b00620009b4565b5b600182019050919050565b6121058062000b1c6000396000f3fe6080604052600436106100c65760003560e01c8063dc5939371161007f578063f21e0e9911610059578063f21e0e99146102ac578063f25f4b56146102c3578063fb6ff96e146102ee578063fbbf93a0146103195761017a565b8063dc59393714610241578063ea8a1af014610258578063f17171e91461026f5761017a565b806312065fe01461017f57806344ad8080146101aa5780634d7eb0bf146101c15780636c06f2ca146101d857806398b2d4fc146101ef5780639eb262f3146102185761017a565b3661017a576005600160000160009054906101000a900460ff1660068111156100f2576100f16113a5565b5b60ff1610610135576040517f08c379a000000000000000000000000000000000000000000000000000000000815260040161012c90611431565b60405180910390fd5b60003411610178576040517f08c379a000000000000000000000000000000000000000000000000000000000815260040161016f9061149d565b60405180910390fd5b005b600080fd5b34801561018b57600080fd5b50610194610344565b6040516101a191906114d6565b60405180910390f35b3480156101b657600080fd5b506101bf61034c565b005b3480156101cd57600080fd5b506101d66104fc565b005b3480156101e457600080fd5b506101ed610638565b005b3480156101fb57600080fd5b5061021660048036038101906102119190611531565b61082d565b005b34801561022457600080fd5b5061023f600480360381019061023a9190611715565b610a1c565b005b34801561024d57600080fd5b50610256610b3d565b005b34801561026457600080fd5b5061026d610c79565b005b34801561027b57600080fd5b506102966004803603810190610291919061175e565b610ea4565b6040516102a391906117a6565b60405180910390f35b3480156102b857600080fd5b506102c1610ec4565b005b3480156102cf57600080fd5b506102d861100e565b6040516102e591906117e2565b60405180910390f35b3480156102fa57600080fd5b50610303611034565b60405161031091906114d6565b60405180910390f35b34801561032557600080fd5b5061032e61103a565b60405161033b919061195e565b60405180910390f35b600047905090565b6000805414610390576040517f08c379a0000000000000000000000000000000000000000000000000000000008152600401610387906119c6565b60405180910390fd5b6000808154809291906103a290611a15565b9190505550600160030160009054906101000a900473ffffffffffffffffffffffffffffffffffffffff1673ffffffffffffffffffffffffffffffffffffffff163373ffffffffffffffffffffffffffffffffffffffff161461043a576040517f08c379a000000000000000000000000000000000000000000000000000000000815260040161043190611aa9565b60405180910390fd5b6003600681111561044e5761044d6113a5565b5b600160000160009054906101000a900460ff166006811115610473576104726113a5565b5b146104b3576040517f08c379a00000000000000000000000000000000000000000000000000000000081526004016104aa90611b15565b60405180910390fd5b6104e3600160040160009054906101000a900473ffffffffffffffffffffffffffffffffffffffff1660066111d7565b6000808154809291906104f590611b35565b9190505550565b600160040160009054906101000a900473ffffffffffffffffffffffffffffffffffffffff1673ffffffffffffffffffffffffffffffffffffffff163373ffffffffffffffffffffffffffffffffffffffff161461058f576040517f08c379a000000000000000000000000000000000000000000000000000000000815260040161058690611baa565b60405180910390fd5b600260068111156105a3576105a26113a5565b5b600160000160009054906101000a900460ff1660068111156105c8576105c76113a5565b5b14610608576040517f08c379a00000000000000000000000000000000000000000000000000000000081526004016105ff90611c16565b60405180910390fd5b6004600160000160006101000a81548160ff02191690836006811115610631576106306113a5565b5b0217905550565b600080541461067c576040517f08c379a0000000000000000000000000000000000000000000000000000000008152600401610673906119c6565b60405180910390fd5b60008081548092919061068e90611a15565b9190505550600160040160009054906101000a900473ffffffffffffffffffffffffffffffffffffffff1673ffffffffffffffffffffffffffffffffffffffff163373ffffffffffffffffffffffffffffffffffffffff1614610726576040517f08c379a000000000000000000000000000000000000000000000000000000000815260040161071d90611baa565b60405180910390fd5b6000600681111561073a576107396113a5565b5b600160000160009054906101000a900460ff16600681111561075f5761075e6113a5565b5b1461079f576040517f08c379a000000000000000000000000000000000000000000000000000000000815260040161079690611c82565b60405180910390fd5b6001600601544710156107e7576040517f08c379a00000000000000000000000000000000000000000000000000000000081526004016107de90611cee565b60405180910390fd5b60018060000160006101000a81548160ff0219169083600681111561080f5761080e6113a5565b5b021790555060008081548092919061082690611b35565b9190505550565b600160030160009054906101000a900473ffffffffffffffffffffffffffffffffffffffff1673ffffffffffffffffffffffffffffffffffffffff163373ffffffffffffffffffffffffffffffffffffffff16146108c0576040517f08c379a00000000000000000000000000000000000000000000000000000000081526004016108b790611aa9565b60405180910390fd5b600360068111156108d4576108d36113a5565b5b600160000160009054906101000a900460ff1660068111156108f9576108f86113a5565b5b14610939576040517f08c379a000000000000000000000000000000000000000000000000000000000815260040161093090611b15565b60405180910390fd5b6201518081101561097f576040517f08c379a000000000000000000000000000000000000000000000000000000000815260040161097690611d5a565b60405180910390fd5b600a600081548092919061099290611a15565b91905055506001600a5411156109d5576004600160000160006101000a81548160ff021916908360068111156109cb576109ca6113a5565b5b0217905550610a19565b6002600160000160006101000a81548160ff021916908360068111156109fe576109fd6113a5565b5b02179055508042610a0f9190611d7a565b6001600501819055505b50565b600b60003373ffffffffffffffffffffffffffffffffffffffff1673ffffffffffffffffffffffffffffffffffffffff16815260200190815260200160002060009054906101000a900460ff16610aa8576040517f08c379a0000000000000000000000000000000000000000000000000000000008152600401610a9f90611dfa565b60405180910390fd5b60005b8151811015610b39576001600b6000848481518110610acd57610acc611e1a565b5b602002602001015173ffffffffffffffffffffffffffffffffffffffff1673ffffffffffffffffffffffffffffffffffffffff16815260200190815260200160002060006101000a81548160ff0219169083151502179055508080610b3190611a15565b915050610aab565b5050565b600160040160009054906101000a900473ffffffffffffffffffffffffffffffffffffffff1673ffffffffffffffffffffffffffffffffffffffff163373ffffffffffffffffffffffffffffffffffffffff1614610bd0576040517f08c379a0000000000000000000000000000000000000000000000000000000008152600401610bc790611baa565b60405180910390fd5b60016006811115610be457610be36113a5565b5b600160000160009054906101000a900460ff166006811115610c0957610c086113a5565b5b14610c49576040517f08c379a0000000000000000000000000000000000000000000000000000000008152600401610c4090611e95565b60405180910390fd5b6003600160000160006101000a81548160ff02191690836006811115610c7257610c716113a5565b5b0217905550565b6003600160000160009054906101000a900460ff166006811115610ca057610c9f6113a5565b5b60ff1610610ce3576040517f08c379a0000000000000000000000000000000000000000000000000000000008152600401610cda90611f01565b60405180910390fd5b600160030160009054906101000a900473ffffffffffffffffffffffffffffffffffffffff1673ffffffffffffffffffffffffffffffffffffffff163373ffffffffffffffffffffffffffffffffffffffff161480610d925750600160040160009054906101000a900473ffffffffffffffffffffffffffffffffffffffff1673ffffffffffffffffffffffffffffffffffffffff163373ffffffffffffffffffffffffffffffffffffffff16145b610dd1576040517f08c379a0000000000000000000000000000000000000000000000000000000008152600401610dc890611f6d565b60405180910390fd5b600160030160009054906101000a900473ffffffffffffffffffffffffffffffffffffffff1673ffffffffffffffffffffffffffffffffffffffff163373ffffffffffffffffffffffffffffffffffffffff1603610e7257426001600201541115610e71576040517f08c379a0000000000000000000000000000000000000000000000000000000008152600401610e6890611fd9565b60405180910390fd5b5b610ea2600160030160009054906101000a900473ffffffffffffffffffffffffffffffffffffffff1660056111d7565b565b600b6020528060005260406000206000915054906101000a900460ff1681565b600160040160009054906101000a900473ffffffffffffffffffffffffffffffffffffffff1673ffffffffffffffffffffffffffffffffffffffff163373ffffffffffffffffffffffffffffffffffffffff1614610f57576040517f08c379a0000000000000000000000000000000000000000000000000000000008152600401610f4e90611baa565b60405180910390fd5b60026006811115610f6b57610f6a6113a5565b5b600160000160009054906101000a900460ff166006811115610f9057610f8f6113a5565b5b14610fd0576040517f08c379a0000000000000000000000000000000000000000000000000000000008152600401610fc790611c16565b60405180910390fd5b60018060000160006101000a81548160ff02191690836006811115610ff857610ff76113a5565b5b0217905550600160050154600160020181905550565b600960009054906101000a900473ffffffffffffffffffffffffffffffffffffffff1681565b600a5481565b6110426112ff565b6001604051806101200160405290816000820160009054906101000a900460ff166006811115611075576110746113a5565b5b6006811115611087576110866113a5565b5b815260200160018201548152602001600282015481526020016003820160009054906101000a900473ffffffffffffffffffffffffffffffffffffffff1673ffffffffffffffffffffffffffffffffffffffff1673ffffffffffffffffffffffffffffffffffffffff1681526020016004820160009054906101000a900473ffffffffffffffffffffffffffffffffffffffff1673ffffffffffffffffffffffffffffffffffffffff1673ffffffffffffffffffffffffffffffffffffffff16815260200160058201548152602001600682015481526020016007820160009054906101000a900473ffffffffffffffffffffffffffffffffffffffff1673ffffffffffffffffffffffffffffffffffffffff1673ffffffffffffffffffffffffffffffffffffffff1681526020016007820160149054906101000a900460ff1660ff1660ff1681525050905090565b60006064600160070160149054906101000a900460ff1660ff166001600601546112019190611ff9565b61120b919061206a565b9050600960009054906101000a900473ffffffffffffffffffffffffffffffffffffffff1673ffffffffffffffffffffffffffffffffffffffff166108fc829081150290604051600060405180830381858888f19350505050158015611275573d6000803e3d6000fd5b508273ffffffffffffffffffffffffffffffffffffffff166108fc826001600601546112a1919061209b565b9081150290604051600060405180830381858888f193505050501580156112cc573d6000803e3d6000fd5b5081600160000160006101000a81548160ff021916908360068111156112f5576112f46113a5565b5b0217905550505050565b6040518061012001604052806000600681111561131f5761131e6113a5565b5b81526020016000801916815260200160008152602001600073ffffffffffffffffffffffffffffffffffffffff168152602001600073ffffffffffffffffffffffffffffffffffffffff1681526020016000815260200160008152602001600073ffffffffffffffffffffffffffffffffffffffff168152602001600060ff1681525090565b7f4e487b7100000000000000000000000000000000000000000000000000000000600052602160045260246000fd5b600082825260208201905092915050565b7f4e4f545f454c494749424c450000000000000000000000000000000000000000600082015250565b600061141b600c836113d4565b9150611426826113e5565b602082019050919050565b6000602082019050818103600083015261144a8161140e565b9050919050565b7f494e56414c49445f414d4f554e54000000000000000000000000000000000000600082015250565b6000611487600e836113d4565b915061149282611451565b602082019050919050565b600060208201905081810360008301526114b68161147a565b9050919050565b6000819050919050565b6114d0816114bd565b82525050565b60006020820190506114eb60008301846114c7565b92915050565b6000604051905090565b600080fd5b600080fd5b61150e816114bd565b811461151957600080fd5b50565b60008135905061152b81611505565b92915050565b600060208284031215611547576115466114fb565b5b60006115558482850161151c565b91505092915050565b600080fd5b6000601f19601f8301169050919050565b7f4e487b7100000000000000000000000000000000000000000000000000000000600052604160045260246000fd5b6115ac82611563565b810181811067ffffffffffffffff821117156115cb576115ca611574565b5b80604052505050565b60006115de6114f1565b90506115ea82826115a3565b919050565b600067ffffffffffffffff82111561160a57611609611574565b5b602082029050602081019050919050565b600080fd5b600073ffffffffffffffffffffffffffffffffffffffff82169050919050565b600061164b82611620565b9050919050565b61165b81611640565b811461166657600080fd5b50565b60008135905061167881611652565b92915050565b600061169161168c846115ef565b6115d4565b905080838252602082019050602084028301858111156116b4576116b361161b565b5b835b818110156116dd57806116c98882611669565b8452602084019350506020810190506116b6565b5050509392505050565b600082601f8301126116fc576116fb61155e565b5b813561170c84826020860161167e565b91505092915050565b60006020828403121561172b5761172a6114fb565b5b600082013567ffffffffffffffff81111561174957611748611500565b5b611755848285016116e7565b91505092915050565b600060208284031215611774576117736114fb565b5b600061178284828501611669565b91505092915050565b60008115159050919050565b6117a08161178b565b82525050565b60006020820190506117bb6000830184611797565b92915050565b60006117cc82611620565b9050919050565b6117dc816117c1565b82525050565b60006020820190506117f760008301846117d3565b92915050565b6007811061180e5761180d6113a5565b5b50565b600081905061181f826117fd565b919050565b600061182f82611811565b9050919050565b61183f81611824565b82525050565b6000819050919050565b61185881611845565b82525050565b611867816114bd565b82525050565b611876816117c1565b82525050565b61188581611640565b82525050565b600060ff82169050919050565b6118a18161188b565b82525050565b610120820160008201516118be6000850182611836565b5060208201516118d1602085018261184f565b5060408201516118e4604085018261185e565b5060608201516118f7606085018261186d565b50608082015161190a608085018261186d565b5060a082015161191d60a085018261185e565b5060c082015161193060c085018261185e565b5060e082015161194360e085018261187c565b50610100820151611958610100850182611898565b50505050565b60006101208201905061197460008301846118a7565b92915050565b7f5265656e7472616e637920646574656374656400000000000000000000000000600082015250565b60006119b06013836113d4565b91506119bb8261197a565b602082019050919050565b600060208201905081810360008301526119df816119a3565b9050919050565b7f4e487b7100000000000000000000000000000000000000000000000000000000600052601160045260246000fd5b6000611a20826114bd565b91507fffffffffffffffffffffffffffffffffffffffffffffffffffffffffffffffff8203611a5257611a516119e6565b5b600182019050919050565b7f4f4e4c595f42555945525f414c4c4f5745440000000000000000000000000000600082015250565b6000611a936012836113d4565b9150611a9e82611a5d565b602082019050919050565b60006020820190508181036000830152611ac281611a86565b9050919050565b7f4e4f545f494e5f44454c4956455245445f535441545553000000000000000000600082015250565b6000611aff6017836113d4565b9150611b0a82611ac9565b602082019050919050565b60006020820190508181036000830152611b2e81611af2565b9050919050565b6000611b40826114bd565b915060008203611b5357611b526119e6565b5b600182039050919050565b7f4f4e4c595f53454c4c45525f414c4c4f57454400000000000000000000000000600082015250565b6000611b946013836113d4565b9150611b9f82611b5e565b602082019050919050565b60006020820190508181036000830152611bc381611b87565b9050919050565b7f4e4f545f494e5f524551554553545f524556495345445f535441545553000000600082015250565b6000611c00601d836113d4565b9150611c0b82611bca565b602082019050919050565b60006020820190508181036000830152611c2f81611bf3565b9050919050565b7f4e4f545f494e5f4c41554e434845445f53544154555300000000000000000000600082015250565b6000611c6c6016836113d4565b9150611c7782611c36565b602082019050919050565b60006020820190508181036000830152611c9b81611c5f565b9050919050565b7f494e53554646494349454e545f46554e44530000000000000000000000000000600082015250565b6000611cd86012836113d4565b9150611ce382611ca2565b602082019050919050565b60006020820190508181036000830152611d0781611ccb565b9050919050565b7f494e56414c49445f52454a4543545f4455524154494f4e000000000000000000600082015250565b6000611d446017836113d4565b9150611d4f82611d0e565b602082019050919050565b60006020820190508181036000830152611d7381611d37565b9050919050565b6000611d85826114bd565b9150611d90836114bd565b9250828201905080821115611da857611da76119e6565b5b92915050565b7f4f4e4c595f545255535445445f48414e444c4552535f414c4c4f574544000000600082015250565b6000611de4601d836113d4565b9150611def82611dae565b602082019050919050565b60006020820190508181036000830152611e1381611dd7565b9050919050565b7f4e487b7100000000000000000000000000000000000000000000000000000000600052603260045260246000fd5b7f4e4f545f494e5f4f4e474f494e475f5354415455530000000000000000000000600082015250565b6000611e7f6015836113d4565b9150611e8a82611e49565b602082019050919050565b60006020820190508181036000830152611eae81611e72565b9050919050565b7f4e4f545f454c494749424c455f464f525f43414e43454c4c4154494f4e000000600082015250565b6000611eeb601d836113d4565b9150611ef682611eb5565b602082019050919050565b60006020820190508181036000830152611f1a81611ede565b9050919050565b7f4f4e4c595f42555945525f4f525f53454c4c45525f414c4c4f57454400000000600082015250565b6000611f57601c836113d4565b9150611f6282611f21565b602082019050919050565b60006020820190508181036000830152611f8681611f4a565b9050919050565b7f5f5f5f444541444c494e455f4e4f545f455850495245445f5f5f000000000000600082015250565b6000611fc3601a836113d4565b9150611fce82611f8d565b602082019050919050565b60006020820190508181036000830152611ff281611fb6565b9050919050565b6000612004826114bd565b915061200f836114bd565b925082820261201d816114bd565b91508282048414831517612034576120336119e6565b5b5092915050565b7f4e487b7100000000000000000000000000000000000000000000000000000000600052601260045260246000fd5b6000612075826114bd565b9150612080836114bd565b9250826120905761208f61203b565b5b828204905092915050565b60006120a6826114bd565b91506120b1836114bd565b92508282039050818111156120c9576120c86119e6565b5b9291505056fea2646970667358221220f62d4ce1ba5b37b28ea3513b70c5ff140da9acb506749765e52fbb4616494db364736f6c63430008130033a26469706673582212204df0fe56d8118a2bd4943ca57c115c57b11bb0e6c847106bc324307ed911f64564736f6c63430008130033",
  "linkReferences": {},
  "deployedLinkReferences": {}
}