{
  "contractName": "EscrowFactory",
  "abi": [
    {
      "inputs": [
        {
          "internalType": "address",
          "name": "_myAddress",
          "type": "address"
        },
        {
          "internalType": "address",
          "name": "_feeWalletAddress",
          "type": "address"
        }
      ],
      "stateMutability": "nonpayable",
      "type": "constructor"
    },
    {
      "anonymous": false,
      "inputs": [
        {
          "indexed": true,
          "internalType": "address",
          "name": "escrowAddress",
          "type": "address"
        }
      ],
      "name": "Created",
      "type": "event"
    },
    {
      "inputs": [],
      "name": "TRUSTED",
      "outputs": [
        {
          "internalType": "address",
          "name": "",
          "type": "address"
        }
      ],
      "stateMutability": "view",
      "type": "function"
    },
    {
      "inputs": [],
      "name": "counter",
      "outputs": [
        {
          "internalType": "uint256",
          "name": "",
          "type": "uint256"
        }
      ],
      "stateMutability": "view",
      "type": "function"
    },
    {
      "inputs": [],
      "name": "escrow",
      "outputs": [
        {
          "internalType": "address payable",
          "name": "",
          "type": "address"
        }
      ],
      "stateMutability": "view",
      "type": "function"
    },
    {
      "inputs": [
        {
          "internalType": "uint256",
          "name": "",
          "type": "uint256"
        }
      ],
      "name": "escrows",
      "outputs": [
        {
          "internalType": "address",
          "name": "",
          "type": "address"
        }
      ],
      "stateMutability": "view",
      "type": "function"
    },
    {
      "inputs": [],
      "name": "feePercent",
      "outputs": [
        {
          "internalType": "uint8",
          "name": "",
          "type": "uint8"
        }
      ],
      "stateMutability": "view",
      "type": "function"
    },
    {
      "inputs": [],
      "name": "feeWalletAddress",
      "outputs": [
        {
          "internalType": "address",
          "name": "",
          "type": "address"
        }
      ],
      "stateMutability": "view",
      "type": "function"
    },
    {
      "inputs": [],
      "name": "myAddress",
      "outputs": [
        {
          "internalType": "address",
          "name": "",
          "type": "address"
        }
      ],
      "stateMutability": "view",
      "type": "function"
    },
    {
      "inputs": [
        {
          "internalType": "address",
          "name": "",
          "type": "address"
        },
        {
          "internalType": "uint256",
          "name": "",
          "type": "uint256"
        }
      ],
      "name": "myEscrows",
      "outputs": [
        {
          "internalType": "address",
          "name": "",
          "type": "address"
        }
      ],
      "stateMutability": "view",
      "type": "function"
    },
    {
      "inputs": [
        {
          "internalType": "address payable",
          "name": "seller",
          "type": "address"
        },
        {
          "internalType": "uint256",
          "name": "amount",
          "type": "uint256"
        },
        {
          "internalType": "bytes32",
          "name": "title",
          "type": "bytes32"
        },
        {
          "internalType": "uint256",
          "name": "duration",
          "type": "uint256"
        }
      ],
      "name": "createEscrow",
      "outputs": [
        {
          "internalType": "address",
          "name": "",
          "type": "address"
        }
      ],
      "stateMutability": "payable",
      "type": "function"
    },
    {
      "inputs": [
        {
          "internalType": "address payable",
          "name": "to",
          "type": "address"
        },
        {
          "internalType": "uint256",
          "name": "amount",
          "type": "uint256"
        }
      ],
      "name": "withdraw",
      "outputs": [],
      "stateMutability": "nonpayable",
      "type": "function"
    }
  ],
  "bytecode": "0x608060405234801562000010575f80fd5b506040516200417338038062004173833981810160405281019062000036919062000122565b8160035f6101000a81548173ffffffffffffffffffffffffffffffffffffffff021916908373ffffffffffffffffffffffffffffffffffffffff160217905550805f806101000a81548173ffffffffffffffffffffffffffffffffffffffff021916908373ffffffffffffffffffffffffffffffffffffffff160217905550505062000167565b5f80fd5b5f73ffffffffffffffffffffffffffffffffffffffff82169050919050565b5f620000ec82620000c1565b9050919050565b620000fe81620000e0565b811462000109575f80fd5b50565b5f815190506200011c81620000f3565b92915050565b5f80604083850312156200013b576200013a620000bd565b5b5f6200014a858286016200010c565b92505060206200015d858286016200010c565b9150509250929050565b613ffe80620001755f395ff3fe6080604052600436106200009d575f3560e01c80637b0de07211620000605780637b0de07214620001a75780637fd6f15c14620001ea578063d02f8c3a1462000219578063e2fdcc171462000248578063f3fef3a31462000277576200009d565b8063012f52ee14620000a157806308a300cb14620000e457806326b85ee1146200011357806361bc221a14620001425780637766b03f1462000171575b5f80fd5b348015620000ad575f80fd5b50620000cc6004803603810190620000c6919062000c22565b620002a4565b604051620000db919062000c95565b60405180910390f35b348015620000f0575f80fd5b50620000fb620002e0565b6040516200010a919062000c95565b60405180910390f35b3480156200011f575f80fd5b506200012a62000303565b60405162000139919062000c95565b60405180910390f35b3480156200014e575f80fd5b506200015962000328565b60405162000168919062000cc1565b60405180910390f35b6200018f600480360381019062000189919062000d56565b6200032e565b6040516200019e919062000c95565b60405180910390f35b348015620001b3575f80fd5b50620001d26004803603810190620001cc919062000df4565b6200096c565b604051620001e1919062000c95565b60405180910390f35b348015620001f6575f80fd5b5062000201620009b5565b60405162000210919062000e56565b60405180910390f35b34801562000225575f80fd5b5062000230620009c7565b6040516200023f919062000c95565b60405180910390f35b34801562000254575f80fd5b506200025f620009df565b6040516200026e919062000e82565b60405180910390f35b34801562000283575f80fd5b50620002a260048036038101906200029c919062000e9d565b62000a04565b005b60028181548110620002b4575f80fd5b905f5260205f20015f915054906101000a900473ffffffffffffffffffffffffffffffffffffffff1681565b5f8054906101000a900473ffffffffffffffffffffffffffffffffffffffff1681565b60035f9054906101000a900473ffffffffffffffffffffffffffffffffffffffff1681565b60015481565b5f8473ffffffffffffffffffffffffffffffffffffffff163373ffffffffffffffffffffffffffffffffffffffff1603620003a0576040517f08c379a0000000000000000000000000000000000000000000000000000000008152600401620003979062000f40565b60405180910390fd5b5f73ffffffffffffffffffffffffffffffffffffffff168573ffffffffffffffffffffffffffffffffffffffff160362000411576040517f08c379a0000000000000000000000000000000000000000000000000000000008152600401620004089062000fae565b60405180910390fd5b620151808210156200045a576040517f08c379a000000000000000000000000000000000000000000000000000000000815260040162000451906200101c565b60405180910390fd5b8334146200049f576040517f08c379a000000000000000000000000000000000000000000000000000000000815260040162000496906200108a565b60405180910390fd5b5f620004db6064620004cc5f60149054906101000a900460ff1660ff168862000a9990919063ffffffff16565b62000ab090919063ffffffff16565b905062000527815f8054906101000a900473ffffffffffffffffffffffffffffffffffffffff1673ffffffffffffffffffffffffffffffffffffffff1662000ac790919063ffffffff16565b5f600167ffffffffffffffff811115620005465762000545620010aa565b5b604051908082528060200260200182016040528015620005755781602001602082028036833780820191505090505b50905073ecbd44299c33d035511673ec65eb3e7d7658c766815f81518110620005a357620005a2620010d7565b5b602002602001019073ffffffffffffffffffffffffffffffffffffffff16908173ffffffffffffffffffffffffffffffffffffffff16815250505f805f9054906101000a900473ffffffffffffffffffffffffffffffffffffffff168562000615858a62000bc190919063ffffffff16565b88338c5f60149054906101000a900460ff1688604051620006369062000bd8565b62000649989796959493929190620011dc565b604051809103905ff08015801562000663573d5f803e3d5ffd5b50905060045f9054906101000a900473ffffffffffffffffffffffffffffffffffffffff1673ffffffffffffffffffffffffffffffffffffffff166108fc620006b6858a62000bc190919063ffffffff16565b90811502906040515f60405180830381858888f19350505050158015620006df573d5f803e3d5ffd5b50600260045f9054906101000a900473ffffffffffffffffffffffffffffffffffffffff16908060018154018082558091505060019003905f5260205f20015f9091909190916101000a81548173ffffffffffffffffffffffffffffffffffffffff021916908373ffffffffffffffffffffffffffffffffffffffff16021790555060055f3373ffffffffffffffffffffffffffffffffffffffff1673ffffffffffffffffffffffffffffffffffffffff1681526020019081526020015f2060045f9054906101000a900473ffffffffffffffffffffffffffffffffffffffff16908060018154018082558091505060019003905f5260205f20015f9091909190916101000a81548173ffffffffffffffffffffffffffffffffffffffff021916908373ffffffffffffffffffffffffffffffffffffffff16021790555060055f8973ffffffffffffffffffffffffffffffffffffffff1673ffffffffffffffffffffffffffffffffffffffff1681526020019081526020015f2060045f9054906101000a900473ffffffffffffffffffffffffffffffffffffffff16908060018154018082558091505060019003905f5260205f20015f9091909190916101000a81548173ffffffffffffffffffffffffffffffffffffffff021916908373ffffffffffffffffffffffffffffffffffffffff16021790555060045f9054906101000a900473ffffffffffffffffffffffffffffffffffffffff1673ffffffffffffffffffffffffffffffffffffffff167f1449abf21e49fd025f33495e77f7b1461caefdd3d4bb646424a3f445c4576a5b60405160405180910390a260045f9054906101000a900473ffffffffffffffffffffffffffffffffffffffff169350505050949350505050565b6005602052815f5260405f20818154811062000986575f80fd5b905f5260205f20015f915091509054906101000a900473ffffffffffffffffffffffffffffffffffffffff1681565b5f60149054906101000a900460ff1681565b73ecbd44299c33d035511673ec65eb3e7d7658c76681565b60045f9054906101000a900473ffffffffffffffffffffffffffffffffffffffff1681565b73ecbd44299c33d035511673ec65eb3e7d7658c76673ffffffffffffffffffffffffffffffffffffffff163373ffffffffffffffffffffffffffffffffffffffff161462000a50575f80fd5b8173ffffffffffffffffffffffffffffffffffffffff166108fc8290811502906040515f60405180830381858888f1935050505015801562000a94573d5f803e3d5ffd5b505050565b5f818362000aa891906200129c565b905092915050565b5f818362000abf919062001313565b905092915050565b8047101562000b0d576040517f08c379a000000000000000000000000000000000000000000000000000000000815260040162000b049062001398565b60405180910390fd5b5f8273ffffffffffffffffffffffffffffffffffffffff168260405162000b3490620013e9565b5f6040518083038185875af1925050503d805f811462000b70576040519150601f19603f3d011682016040523d82523d5f602084013e62000b75565b606091505b505090508062000bbc576040517f08c379a000000000000000000000000000000000000000000000000000000000815260040162000bb39062001473565b60405180910390fd5b505050565b5f818362000bd0919062001493565b905092915050565b612afb80620014ce83390190565b5f80fd5b5f819050919050565b62000bfe8162000bea565b811462000c09575f80fd5b50565b5f8135905062000c1c8162000bf3565b92915050565b5f6020828403121562000c3a5762000c3962000be6565b5b5f62000c498482850162000c0c565b91505092915050565b5f73ffffffffffffffffffffffffffffffffffffffff82169050919050565b5f62000c7d8262000c52565b9050919050565b62000c8f8162000c71565b82525050565b5f60208201905062000caa5f83018462000c84565b92915050565b62000cbb8162000bea565b82525050565b5f60208201905062000cd65f83018462000cb0565b92915050565b5f62000ce88262000c52565b9050919050565b62000cfa8162000cdc565b811462000d05575f80fd5b50565b5f8135905062000d188162000cef565b92915050565b5f819050919050565b62000d328162000d1e565b811462000d3d575f80fd5b50565b5f8135905062000d508162000d27565b92915050565b5f805f806080858703121562000d715762000d7062000be6565b5b5f62000d808782880162000d08565b945050602062000d938782880162000c0c565b935050604062000da68782880162000d40565b925050606062000db98782880162000c0c565b91505092959194509250565b62000dd08162000c71565b811462000ddb575f80fd5b50565b5f8135905062000dee8162000dc5565b92915050565b5f806040838503121562000e0d5762000e0c62000be6565b5b5f62000e1c8582860162000dde565b925050602062000e2f8582860162000c0c565b9150509250929050565b5f60ff82169050919050565b62000e508162000e39565b82525050565b5f60208201905062000e6b5f83018462000e45565b92915050565b62000e7c8162000cdc565b82525050565b5f60208201905062000e975f83018462000e71565b92915050565b5f806040838503121562000eb65762000eb562000be6565b5b5f62000ec58582860162000d08565b925050602062000ed88582860162000c0c565b9150509250929050565b5f82825260208201905092915050565b7f53656c6c65722063616e6e6f7420626520657363726f772063726561746f72005f82015250565b5f62000f28601f8362000ee2565b915062000f358262000ef2565b602082019050919050565b5f6020820190508181035f83015262000f598162000f1a565b9050919050565b7f496e76616c69642073656c6c65722061646472657373000000000000000000005f82015250565b5f62000f9660168362000ee2565b915062000fa38262000f60565b602082019050919050565b5f6020820190508181035f83015262000fc78162000f88565b9050919050565b7f4475726174696f6e206d757374206265206174206c65617374203120646179005f82015250565b5f62001004601f8362000ee2565b9150620010118262000fce565b602082019050919050565b5f6020820190508181035f830152620010358162000ff6565b9050919050565b7f56616c7565206d69736d617463680000000000000000000000000000000000005f82015250565b5f62001072600e8362000ee2565b91506200107f826200103c565b602082019050919050565b5f6020820190508181035f830152620010a38162001064565b9050919050565b7f4e487b71000000000000000000000000000000000000000000000000000000005f52604160045260245ffd5b7f4e487b71000000000000000000000000000000000000000000000000000000005f52603260045260245ffd5b6200110f8162000d1e565b82525050565b5f81519050919050565b5f82825260208201905092915050565b5f819050602082019050919050565b620011498162000c71565b82525050565b5f6200115c83836200113e565b60208301905092915050565b5f602082019050919050565b5f620011808262001115565b6200118c81856200111f565b935062001199836200112f565b805f5b83811015620011cf578151620011b388826200114f565b9750620011c08362001168565b9250506001810190506200119c565b5085935050505092915050565b5f61010082019050620011f25f83018b62000e71565b62001201602083018a62000cb0565b62001210604083018962000cb0565b6200121f606083018862001104565b6200122e608083018762000e71565b6200123d60a083018662000e71565b6200124c60c083018562000e45565b81810360e083015262001260818462001174565b90509998505050505050505050565b7f4e487b71000000000000000000000000000000000000000000000000000000005f52601160045260245ffd5b5f620012a88262000bea565b9150620012b58362000bea565b9250828202620012c58162000bea565b91508282048414831517620012df57620012de6200126f565b5b5092915050565b7f4e487b71000000000000000000000000000000000000000000000000000000005f52601260045260245ffd5b5f6200131f8262000bea565b91506200132c8362000bea565b9250826200133f576200133e620012e6565b5b828204905092915050565b7f416464726573733a20696e73756666696369656e742062616c616e63650000005f82015250565b5f62001380601d8362000ee2565b91506200138d826200134a565b602082019050919050565b5f6020820190508181035f830152620013b18162001372565b9050919050565b5f81905092915050565b50565b5f620013d25f83620013b8565b9150620013df82620013c2565b5f82019050919050565b5f620013f582620013c5565b9150819050919050565b7f416464726573733a20756e61626c6520746f2073656e642076616c75652c20725f8201527f6563697069656e74206d61792068617665207265766572746564000000000000602082015250565b5f6200145b603a8362000ee2565b91506200146882620013ff565b604082019050919050565b5f6020820190508181035f8301526200148c816200144d565b9050919050565b5f6200149f8262000bea565b9150620014ac8362000bea565b9250828203905081811115620014c757620014c66200126f565b5b9291505056fe60806040525f600a5534801562000014575f80fd5b5060405162002afb38038062002afb83398181016040528101906200003a919062000776565b6201518087101562000083576040517f08c379a00000000000000000000000000000000000000000000000000000000081526004016200007a90620008b7565b60405180910390fd5b5f8260ff1611801562000099575060648260ff16105b620000db576040517f08c379a0000000000000000000000000000000000000000000000000000000008152600401620000d29062000925565b60405180910390fd5b8760095f6101000a81548173ffffffffffffffffffffffffffffffffffffffff021916908373ffffffffffffffffffffffffffffffffffffffff1602179055506001600b5f3373ffffffffffffffffffffffffffffffffffffffff1673ffffffffffffffffffffffffffffffffffffffff1681526020019081526020015f205f6101000a81548160ff02191690831515021790555062000181816200038760201b60201c565b6040518061012001604052805f6006811115620001a357620001a262000945565b5b81526020018681526020018842620001bc91906200099f565b81526020018573ffffffffffffffffffffffffffffffffffffffff1681526020018473ffffffffffffffffffffffffffffffffffffffff1681526020015f81526020018781526020013073ffffffffffffffffffffffffffffffffffffffff1681526020018360ff1681525060015f820151815f015f6101000a81548160ff0219169083600681111562000255576200025462000945565b5b021790555060208201518160010155604082015181600201556060820151816003015f6101000a81548173ffffffffffffffffffffffffffffffffffffffff021916908373ffffffffffffffffffffffffffffffffffffffff1602179055506080820151816004015f6101000a81548173ffffffffffffffffffffffffffffffffffffffff021916908373ffffffffffffffffffffffffffffffffffffffff16021790555060a0820151816005015560c0820151816006015560e0820151816007015f6101000a81548173ffffffffffffffffffffffffffffffffffffffff021916908373ffffffffffffffffffffffffffffffffffffffff1602179055506101008201518160070160146101000a81548160ff021916908360ff160217905550905050505050505050505062000ac0565b600b5f3373ffffffffffffffffffffffffffffffffffffffff1673ffffffffffffffffffffffffffffffffffffffff1681526020019081526020015f205f9054906101000a900460ff1662000413576040517f08c379a00000000000000000000000000000000000000000000000000000000081526004016200040a9062000a27565b60405180910390fd5b5f5b8151811015620004a7576001600b5f8484815181106200043a576200043962000a47565b5b602002602001015173ffffffffffffffffffffffffffffffffffffffff1673ffffffffffffffffffffffffffffffffffffffff1681526020019081526020015f205f6101000a81548160ff02191690831515021790555080806200049e9062000a74565b91505062000415565b5050565b5f604051905090565b5f80fd5b5f80fd5b5f73ffffffffffffffffffffffffffffffffffffffff82169050919050565b5f620004e782620004bc565b9050919050565b620004f981620004db565b811462000504575f80fd5b50565b5f815190506200051781620004ee565b92915050565b5f819050919050565b62000531816200051d565b81146200053c575f80fd5b50565b5f815190506200054f8162000526565b92915050565b5f819050919050565b620005698162000555565b811462000574575f80fd5b50565b5f8151905062000587816200055e565b92915050565b5f60ff82169050919050565b620005a4816200058d565b8114620005af575f80fd5b50565b5f81519050620005c28162000599565b92915050565b5f80fd5b5f601f19601f8301169050919050565b7f4e487b71000000000000000000000000000000000000000000000000000000005f52604160045260245ffd5b6200061482620005cc565b810181811067ffffffffffffffff82111715620006365762000635620005dc565b5b80604052505050565b5f6200064a620004ab565b905062000658828262000609565b919050565b5f67ffffffffffffffff8211156200067a5762000679620005dc565b5b602082029050602081019050919050565b5f80fd5b5f6200069b82620004bc565b9050919050565b620006ad816200068f565b8114620006b8575f80fd5b50565b5f81519050620006cb81620006a2565b92915050565b5f620006e7620006e1846200065d565b6200063f565b905080838252602082019050602084028301858111156200070d576200070c6200068b565b5b835b818110156200073a5780620007258882620006bb565b8452602084019350506020810190506200070f565b5050509392505050565b5f82601f8301126200075b576200075a620005c8565b5b81516200076d848260208601620006d1565b91505092915050565b5f805f805f805f80610100898b031215620007965762000795620004b4565b5b5f620007a58b828c0162000507565b9850506020620007b88b828c016200053f565b9750506040620007cb8b828c016200053f565b9650506060620007de8b828c0162000577565b9550506080620007f18b828c0162000507565b94505060a0620008048b828c0162000507565b93505060c0620008178b828c01620005b2565b92505060e089015167ffffffffffffffff8111156200083b576200083a620004b8565b5b620008498b828c0162000744565b9150509295985092959890939650565b5f82825260208201905092915050565b7f494e56414c49445f4455524154494f4e000000000000000000000000000000005f82015250565b5f6200089f60108362000859565b9150620008ac8262000869565b602082019050919050565b5f6020820190508181035f830152620008d08162000891565b9050919050565b7f494e56414c49445f4645455f50455243454e54000000000000000000000000005f82015250565b5f6200090d60138362000859565b91506200091a82620008d7565b602082019050919050565b5f6020820190508181035f8301526200093e81620008ff565b9050919050565b7f4e487b71000000000000000000000000000000000000000000000000000000005f52602160045260245ffd5b7f4e487b71000000000000000000000000000000000000000000000000000000005f52601160045260245ffd5b5f620009ab826200051d565b9150620009b8836200051d565b9250828201905080821115620009d357620009d262000972565b5b92915050565b7f4f4e4c595f545255535445445f48414e444c4552535f414c4c4f5745440000005f82015250565b5f62000a0f601d8362000859565b915062000a1c82620009d9565b602082019050919050565b5f6020820190508181035f83015262000a408162000a01565b9050919050565b7f4e487b71000000000000000000000000000000000000000000000000000000005f52603260045260245ffd5b5f62000a80826200051d565b91507fffffffffffffffffffffffffffffffffffffffffffffffffffffffffffffffff820362000ab55762000ab462000972565b5b600182019050919050565b61202d8062000ace5f395ff3fe6080604052600436106100c5575f3560e01c8063dc5939371161007e578063f21e0e9911610058578063f21e0e991461029e578063f25f4b56146102b4578063fb6ff96e146102de578063fbbf93a01461030857610176565b8063dc59393714610236578063ea8a1af01461024c578063f17171e91461026257610176565b806312065fe01461017a57806344ad8080146101a45780634d7eb0bf146101ba5780636c06f2ca146101d057806398b2d4fc146101e65780639eb262f31461020e57610176565b3661017657600560015f015f9054906101000a900460ff1660068111156100ef576100ee611342565b5b60ff1610610132576040517f08c379a0000000000000000000000000000000000000000000000000000000008152600401610129906113c9565b60405180910390fd5b5f3411610174576040517f08c379a000000000000000000000000000000000000000000000000000000000815260040161016b90611431565b60405180910390fd5b005b5f80fd5b348015610185575f80fd5b5061018e610332565b60405161019b9190611467565b60405180910390f35b3480156101af575f80fd5b506101b8610339565b005b3480156101c5575f80fd5b506101ce6104e2565b005b3480156101db575f80fd5b506101e4610619565b005b3480156101f1575f80fd5b5061020c600480360381019061020791906114bb565b610805565b005b348015610219575f80fd5b50610234600480360381019061022f9190611690565b6109ec565b005b348015610241575f80fd5b5061024a610b06565b005b348015610257575f80fd5b50610260610c3d565b005b34801561026d575f80fd5b50610288600480360381019061028391906116d7565b610e62565b604051610295919061171c565b60405180910390f35b3480156102a9575f80fd5b506102b2610e7f565b005b3480156102bf575f80fd5b506102c8610fc4565b6040516102d59190611755565b60405180910390f35b3480156102e9575f80fd5b506102f2610fe9565b6040516102ff9190611467565b60405180910390f35b348015610313575f80fd5b5061031c610fef565b60405161032991906118c9565b60405180910390f35b5f47905090565b5f80541461037c576040517f08c379a00000000000000000000000000000000000000000000000000000000081526004016103739061192d565b60405180910390fd5b5f8081548092919061038d90611978565b919050555060016003015f9054906101000a900473ffffffffffffffffffffffffffffffffffffffff1673ffffffffffffffffffffffffffffffffffffffff163373ffffffffffffffffffffffffffffffffffffffff1614610424576040517f08c379a000000000000000000000000000000000000000000000000000000000815260040161041b90611a09565b60405180910390fd5b6003600681111561043857610437611342565b5b60015f015f9054906101000a900460ff16600681111561045b5761045a611342565b5b1461049b576040517f08c379a000000000000000000000000000000000000000000000000000000000815260040161049290611a71565b60405180910390fd5b6104ca60016004015f9054906101000a900473ffffffffffffffffffffffffffffffffffffffff166006611187565b5f808154809291906104db90611a8f565b9190505550565b60016004015f9054906101000a900473ffffffffffffffffffffffffffffffffffffffff1673ffffffffffffffffffffffffffffffffffffffff163373ffffffffffffffffffffffffffffffffffffffff1614610574576040517f08c379a000000000000000000000000000000000000000000000000000000000815260040161056b90611b00565b60405180910390fd5b6002600681111561058857610587611342565b5b60015f015f9054906101000a900460ff1660068111156105ab576105aa611342565b5b146105eb576040517f08c379a00000000000000000000000000000000000000000000000000000000081526004016105e290611b68565b60405180910390fd5b600460015f015f6101000a81548160ff0219169083600681111561061257610611611342565b5b0217905550565b5f80541461065c576040517f08c379a00000000000000000000000000000000000000000000000000000000081526004016106539061192d565b60405180910390fd5b5f8081548092919061066d90611978565b919050555060016004015f9054906101000a900473ffffffffffffffffffffffffffffffffffffffff1673ffffffffffffffffffffffffffffffffffffffff163373ffffffffffffffffffffffffffffffffffffffff1614610704576040517f08c379a00000000000000000000000000000000000000000000000000000000081526004016106fb90611b00565b60405180910390fd5b5f600681111561071757610716611342565b5b60015f015f9054906101000a900460ff16600681111561073a57610739611342565b5b1461077a576040517f08c379a000000000000000000000000000000000000000000000000000000000815260040161077190611bd0565b60405180910390fd5b6001600601544710156107c2576040517f08c379a00000000000000000000000000000000000000000000000000000000081526004016107b990611c38565b60405180910390fd5b6001805f015f6101000a81548160ff021916908360068111156107e8576107e7611342565b5b02179055505f808154809291906107fe90611a8f565b9190505550565b60016003015f9054906101000a900473ffffffffffffffffffffffffffffffffffffffff1673ffffffffffffffffffffffffffffffffffffffff163373ffffffffffffffffffffffffffffffffffffffff1614610897576040517f08c379a000000000000000000000000000000000000000000000000000000000815260040161088e90611a09565b60405180910390fd5b600360068111156108ab576108aa611342565b5b60015f015f9054906101000a900460ff1660068111156108ce576108cd611342565b5b1461090e576040517f08c379a000000000000000000000000000000000000000000000000000000000815260040161090590611a71565b60405180910390fd5b62015180811015610954576040517f08c379a000000000000000000000000000000000000000000000000000000000815260040161094b90611ca0565b60405180910390fd5b600a5f81548092919061096690611978565b91905055506001600a5411156109a757600460015f015f6101000a81548160ff0219169083600681111561099d5761099c611342565b5b02179055506109e9565b600260015f015f6101000a81548160ff021916908360068111156109ce576109cd611342565b5b021790555080426109df9190611cbe565b6001600501819055505b50565b600b5f3373ffffffffffffffffffffffffffffffffffffffff1673ffffffffffffffffffffffffffffffffffffffff1681526020019081526020015f205f9054906101000a900460ff16610a75576040517f08c379a0000000000000000000000000000000000000000000000000000000008152600401610a6c90611d3b565b60405180910390fd5b5f5b8151811015610b02576001600b5f848481518110610a9857610a97611d59565b5b602002602001015173ffffffffffffffffffffffffffffffffffffffff1673ffffffffffffffffffffffffffffffffffffffff1681526020019081526020015f205f6101000a81548160ff0219169083151502179055508080610afa90611978565b915050610a77565b5050565b60016004015f9054906101000a900473ffffffffffffffffffffffffffffffffffffffff1673ffffffffffffffffffffffffffffffffffffffff163373ffffffffffffffffffffffffffffffffffffffff1614610b98576040517f08c379a0000000000000000000000000000000000000000000000000000000008152600401610b8f90611b00565b60405180910390fd5b60016006811115610bac57610bab611342565b5b60015f015f9054906101000a900460ff166006811115610bcf57610bce611342565b5b14610c0f576040517f08c379a0000000000000000000000000000000000000000000000000000000008152600401610c0690611dd0565b60405180910390fd5b600360015f015f6101000a81548160ff02191690836006811115610c3657610c35611342565b5b0217905550565b600360015f015f9054906101000a900460ff166006811115610c6257610c61611342565b5b60ff1610610ca5576040517f08c379a0000000000000000000000000000000000000000000000000000000008152600401610c9c90611e38565b60405180910390fd5b60016003015f9054906101000a900473ffffffffffffffffffffffffffffffffffffffff1673ffffffffffffffffffffffffffffffffffffffff163373ffffffffffffffffffffffffffffffffffffffff161480610d52575060016004015f9054906101000a900473ffffffffffffffffffffffffffffffffffffffff1673ffffffffffffffffffffffffffffffffffffffff163373ffffffffffffffffffffffffffffffffffffffff16145b610d91576040517f08c379a0000000000000000000000000000000000000000000000000000000008152600401610d8890611ea0565b60405180910390fd5b60016003015f9054906101000a900473ffffffffffffffffffffffffffffffffffffffff1673ffffffffffffffffffffffffffffffffffffffff163373ffffffffffffffffffffffffffffffffffffffff1603610e3157426001600201541115610e30576040517f08c379a0000000000000000000000000000000000000000000000000000000008152600401610e2790611f08565b60405180910390fd5b5b610e6060016003015f9054906101000a900473ffffffffffffffffffffffffffffffffffffffff166005611187565b565b600b602052805f5260405f205f915054906101000a900460ff1681565b60016004015f9054906101000a900473ffffffffffffffffffffffffffffffffffffffff1673ffffffffffffffffffffffffffffffffffffffff163373ffffffffffffffffffffffffffffffffffffffff1614610f11576040517f08c379a0000000000000000000000000000000000000000000000000000000008152600401610f0890611b00565b60405180910390fd5b60026006811115610f2557610f24611342565b5b60015f015f9054906101000a900460ff166006811115610f4857610f47611342565b5b14610f88576040517f08c379a0000000000000000000000000000000000000000000000000000000008152600401610f7f90611b68565b60405180910390fd5b6001805f015f6101000a81548160ff02191690836006811115610fae57610fad611342565b5b0217905550600160050154600160020181905550565b60095f9054906101000a900473ffffffffffffffffffffffffffffffffffffffff1681565b600a5481565b610ff76112a5565b6001604051806101200160405290815f82015f9054906101000a900460ff16600681111561102857611027611342565b5b600681111561103a57611039611342565b5b81526020016001820154815260200160028201548152602001600382015f9054906101000a900473ffffffffffffffffffffffffffffffffffffffff1673ffffffffffffffffffffffffffffffffffffffff1673ffffffffffffffffffffffffffffffffffffffff168152602001600482015f9054906101000a900473ffffffffffffffffffffffffffffffffffffffff1673ffffffffffffffffffffffffffffffffffffffff1673ffffffffffffffffffffffffffffffffffffffff1681526020016005820154815260200160068201548152602001600782015f9054906101000a900473ffffffffffffffffffffffffffffffffffffffff1673ffffffffffffffffffffffffffffffffffffffff1673ffffffffffffffffffffffffffffffffffffffff1681526020016007820160149054906101000a900460ff1660ff1660ff1681525050905090565b5f6064600160070160149054906101000a900460ff1660ff166001600601546111b09190611f26565b6111ba9190611f94565b905060095f9054906101000a900473ffffffffffffffffffffffffffffffffffffffff1673ffffffffffffffffffffffffffffffffffffffff166108fc8290811502906040515f60405180830381858888f19350505050158015611220573d5f803e3d5ffd5b508273ffffffffffffffffffffffffffffffffffffffff166108fc8260016006015461124c9190611fc4565b90811502906040515f60405180830381858888f19350505050158015611274573d5f803e3d5ffd5b508160015f015f6101000a81548160ff0219169083600681111561129b5761129a611342565b5b0217905550505050565b6040518061012001604052805f60068111156112c4576112c3611342565b5b81526020015f80191681526020015f81526020015f73ffffffffffffffffffffffffffffffffffffffff1681526020015f73ffffffffffffffffffffffffffffffffffffffff1681526020015f81526020015f81526020015f73ffffffffffffffffffffffffffffffffffffffff1681526020015f60ff1681525090565b7f4e487b71000000000000000000000000000000000000000000000000000000005f52602160045260245ffd5b5f82825260208201905092915050565b7f4e4f545f454c494749424c4500000000000000000000000000000000000000005f82015250565b5f6113b3600c8361136f565b91506113be8261137f565b602082019050919050565b5f6020820190508181035f8301526113e0816113a7565b9050919050565b7f494e56414c49445f414d4f554e540000000000000000000000000000000000005f82015250565b5f61141b600e8361136f565b9150611426826113e7565b602082019050919050565b5f6020820190508181035f8301526114488161140f565b9050919050565b5f819050919050565b6114618161144f565b82525050565b5f60208201905061147a5f830184611458565b92915050565b5f604051905090565b5f80fd5b5f80fd5b61149a8161144f565b81146114a4575f80fd5b50565b5f813590506114b581611491565b92915050565b5f602082840312156114d0576114cf611489565b5b5f6114dd848285016114a7565b91505092915050565b5f80fd5b5f601f19601f8301169050919050565b7f4e487b71000000000000000000000000000000000000000000000000000000005f52604160045260245ffd5b611530826114ea565b810181811067ffffffffffffffff8211171561154f5761154e6114fa565b5b80604052505050565b5f611561611480565b905061156d8282611527565b919050565b5f67ffffffffffffffff82111561158c5761158b6114fa565b5b602082029050602081019050919050565b5f80fd5b5f73ffffffffffffffffffffffffffffffffffffffff82169050919050565b5f6115ca826115a1565b9050919050565b6115da816115c0565b81146115e4575f80fd5b50565b5f813590506115f5816115d1565b92915050565b5f61160d61160884611572565b611558565b905080838252602082019050602084028301858111156116305761162f61159d565b5b835b81811015611659578061164588826115e7565b845260208401935050602081019050611632565b5050509392505050565b5f82601f830112611677576116766114e6565b5b81356116878482602086016115fb565b91505092915050565b5f602082840312156116a5576116a4611489565b5b5f82013567ffffffffffffffff8111156116c2576116c161148d565b5b6116ce84828501611663565b91505092915050565b5f602082840312156116ec576116eb611489565b5b5f6116f9848285016115e7565b91505092915050565b5f8115159050919050565b61171681611702565b82525050565b5f60208201905061172f5f83018461170d565b92915050565b5f61173f826115a1565b9050919050565b61174f81611735565b82525050565b5f6020820190506117685f830184611746565b92915050565b6007811061177f5761177e611342565b5b50565b5f81905061178f8261176e565b919050565b5f61179e82611782565b9050919050565b6117ae81611794565b82525050565b5f819050919050565b6117c6816117b4565b82525050565b6117d58161144f565b82525050565b6117e481611735565b82525050565b6117f3816115c0565b82525050565b5f60ff82169050919050565b61180e816117f9565b82525050565b61012082015f8201516118295f8501826117a5565b50602082015161183c60208501826117bd565b50604082015161184f60408501826117cc565b50606082015161186260608501826117db565b50608082015161187560808501826117db565b5060a082015161188860a08501826117cc565b5060c082015161189b60c08501826117cc565b5060e08201516118ae60e08501826117ea565b506101008201516118c3610100850182611805565b50505050565b5f610120820190506118dd5f830184611814565b92915050565b7f5265656e7472616e6379206465746563746564000000000000000000000000005f82015250565b5f61191760138361136f565b9150611922826118e3565b602082019050919050565b5f6020820190508181035f8301526119448161190b565b9050919050565b7f4e487b71000000000000000000000000000000000000000000000000000000005f52601160045260245ffd5b5f6119828261144f565b91507fffffffffffffffffffffffffffffffffffffffffffffffffffffffffffffffff82036119b4576119b361194b565b5b600182019050919050565b7f4f4e4c595f42555945525f414c4c4f57454400000000000000000000000000005f82015250565b5f6119f360128361136f565b91506119fe826119bf565b602082019050919050565b5f6020820190508181035f830152611a20816119e7565b9050919050565b7f4e4f545f494e5f44454c4956455245445f5354415455530000000000000000005f82015250565b5f611a5b60178361136f565b9150611a6682611a27565b602082019050919050565b5f6020820190508181035f830152611a8881611a4f565b9050919050565b5f611a998261144f565b91505f8203611aab57611aaa61194b565b5b600182039050919050565b7f4f4e4c595f53454c4c45525f414c4c4f574544000000000000000000000000005f82015250565b5f611aea60138361136f565b9150611af582611ab6565b602082019050919050565b5f6020820190508181035f830152611b1781611ade565b9050919050565b7f4e4f545f494e5f524551554553545f524556495345445f5354415455530000005f82015250565b5f611b52601d8361136f565b9150611b5d82611b1e565b602082019050919050565b5f6020820190508181035f830152611b7f81611b46565b9050919050565b7f4e4f545f494e5f4c41554e434845445f535441545553000000000000000000005f82015250565b5f611bba60168361136f565b9150611bc582611b86565b602082019050919050565b5f6020820190508181035f830152611be781611bae565b9050919050565b7f494e53554646494349454e545f46554e445300000000000000000000000000005f82015250565b5f611c2260128361136f565b9150611c2d82611bee565b602082019050919050565b5f6020820190508181035f830152611c4f81611c16565b9050919050565b7f494e56414c49445f52454a4543545f4455524154494f4e0000000000000000005f82015250565b5f611c8a60178361136f565b9150611c9582611c56565b602082019050919050565b5f6020820190508181035f830152611cb781611c7e565b9050919050565b5f611cc88261144f565b9150611cd38361144f565b9250828201905080821115611ceb57611cea61194b565b5b92915050565b7f4f4e4c595f545255535445445f48414e444c4552535f414c4c4f5745440000005f82015250565b5f611d25601d8361136f565b9150611d3082611cf1565b602082019050919050565b5f6020820190508181035f830152611d5281611d19565b9050919050565b7f4e487b71000000000000000000000000000000000000000000000000000000005f52603260045260245ffd5b7f4e4f545f494e5f4f4e474f494e475f53544154555300000000000000000000005f82015250565b5f611dba60158361136f565b9150611dc582611d86565b602082019050919050565b5f6020820190508181035f830152611de781611dae565b9050919050565b7f4e4f545f454c494749424c455f464f525f43414e43454c4c4154494f4e0000005f82015250565b5f611e22601d8361136f565b9150611e2d82611dee565b602082019050919050565b5f6020820190508181035f830152611e4f81611e16565b9050919050565b7f4f4e4c595f42555945525f4f525f53454c4c45525f414c4c4f574544000000005f82015250565b5f611e8a601c8361136f565b9150611e9582611e56565b602082019050919050565b5f6020820190508181035f830152611eb781611e7e565b9050919050565b7f5f5f5f444541444c494e455f4e4f545f455850495245445f5f5f0000000000005f82015250565b5f611ef2601a8361136f565b9150611efd82611ebe565b602082019050919050565b5f6020820190508181035f830152611f1f81611ee6565b9050919050565b5f611f308261144f565b9150611f3b8361144f565b9250828202611f498161144f565b91508282048414831517611f6057611f5f61194b565b5b5092915050565b7f4e487b71000000000000000000000000000000000000000000000000000000005f52601260045260245ffd5b5f611f9e8261144f565b9150611fa98361144f565b925082611fb957611fb8611f67565b5b828204905092915050565b5f611fce8261144f565b9150611fd98361144f565b9250828203905081811115611ff157611ff061194b565b5b9291505056fea264697066735822122095c2708111d0e76561ad8de24cd81f947f1fd50e3028248e1cbcdd6153d97bb764736f6c63430008140033a264697066735822122085e7e853a68ad84f1aefc5005b1a421e8fe65806e45cbc7007b6aafdf9d03bb564736f6c63430008140033",
  "immutableReferences": {},
  "source": "pragma solidity ^0.8.19;\n\nimport \"./Escrow_contract.sol\";\nimport \"@openzeppelin/contracts/utils/math/SafeMath.sol\";\nimport \"@openzeppelin/contracts/utils/Address.sol\";\n\ncontract EscrowFactory {\n\n  using SafeMath for uint256;\n  \n  using Address for address payable;\n\n  address public feeWalletAddress;\n\n  uint8 public feePercent;\n\n  uint256 public counter;\n\n  address[] public escrows;\n  \n  address public myAddress;\n\n  address payable public escrow;\n\n  // address trustedDisputer = myAddress; \n\n  mapping(address => address[]) public myEscrows;\n\n  address public constant TRUSTED = 0xeCBd44299C33D035511673ec65eb3E7D7658c766;\n\n  event Created(address indexed escrowAddress);\n\n  constructor(address _myAddress, address _feeWalletAddress) {\n    myAddress = _myAddress;\n    feeWalletAddress = _feeWalletAddress; \n  }\n\n  function createEscrow(\n    address payable seller,\n    uint256 amount,\n    bytes32 title,\n    uint256 duration\n  ) external payable returns (address) {\n\n    require(msg.sender != seller, \"Seller cannot be escrow creator\");  \n    require(seller != address(0), \"Invalid seller address\");\n    require(duration >= 1 days, \"Duration must be at least 1 day\");\n    require(msg.value == amount, \"Value mismatch\");\n\n    uint256 fee = amount.mul(feePercent).div(100);\n\n    payable(feeWalletAddress).sendValue(fee);\n\n    address[] memory trusted = new address[](1);\n    trusted[0] = TRUSTED;\n\n    Escrow newEscrow = new Escrow(\n      payable(feeWalletAddress),\n      duration,\n      amount.sub(fee),\n      title,\n      payable(msg.sender),\n      seller,\n      feePercent,\n      trusted\n    );\n\n   payable(address(escrow)).transfer(amount.sub(fee));\n\n    escrows.push(address(escrow));\n    myEscrows[msg.sender].push(address(escrow));\n    myEscrows[seller].push(address(escrow));\n\n    emit Created(address(escrow));\n\n    return address(escrow);\n  }\n\n  function withdraw(address payable to, uint256 amount) \n    external\n    onlyTrusted\n  {\n    to.transfer(amount);\n  }\n\n// function addTrusted(address _newTrusted) public onlyOwner {\n//     trusted[_newTrusted] = true;\n//   }\n \n// function getTrusted() public view onlyOwner returns(address[] memory) {\n\n//   // address[] memory result = new address[](trustedCount);\n  \n//   // uint count = 0;\n\n//   // for (uint i = 0; i < trustedAddresses.length; i++) {\n//   //   if (trusted[trustedAddresses[i]]) {\n//   //     result[count] = trustedAddresses[i];\n//   //     count++;\n//   //   }\n//   // }\n\n//   // return result;\n\n// }\n  \nmodifier onlyTrusted() {\n  require(msg.sender == TRUSTED);\n  _;\n  }\n\nmodifier onlyOwner() {\n  require(msg.sender == myAddress);\n  _;\n}\n}",
  "sourcePath": "/Users/sarangsohail/Desktop/escrowDApp/escrowDapp/contracts/EscrowFactory_contract.sol",
  "compiler": {
    "name": "solc",
    "version": "0.8.20+commit.a1b79de6.Emscripten.clang"
  },
  "schemaVersion": "3.4.14",
  "updatedAt": "2023-08-19T13:01:07.258Z",
  "devdoc": {
    "kind": "dev",
    "methods": {},
    "version": 1
  },
  "userdoc": {
    "kind": "user",
    "methods": {},
    "version": 1
  }
}