{
  "contractName": "Escrow",
  "abi": [
    {
      "inputs": [
        {
          "internalType": "address payable",
          "name": "_feeWallet",
          "type": "address"
        },
        {
          "internalType": "uint256",
          "name": "_duration",
          "type": "uint256"
        },
        {
          "internalType": "uint256",
          "name": "_amount",
          "type": "uint256"
        },
        {
          "internalType": "bytes32",
          "name": "_title",
          "type": "bytes32"
        },
        {
          "internalType": "address payable",
          "name": "_buyer",
          "type": "address"
        },
        {
          "internalType": "address payable",
          "name": "_seller",
          "type": "address"
        },
        {
          "internalType": "uint8",
          "name": "_feePercent",
          "type": "uint8"
        },
        {
          "internalType": "address[]",
          "name": "_handlers",
          "type": "address[]"
        }
      ],
      "stateMutability": "nonpayable",
      "type": "constructor"
    },
    {
      "inputs": [
        {
          "internalType": "address",
          "name": "",
          "type": "address"
        }
      ],
      "name": "areTrustedHandlers",
      "outputs": [
        {
          "internalType": "bool",
          "name": "",
          "type": "bool"
        }
      ],
      "stateMutability": "view",
      "type": "function"
    },
    {
      "inputs": [],
      "name": "feeWallet",
      "outputs": [
        {
          "internalType": "address payable",
          "name": "",
          "type": "address"
        }
      ],
      "stateMutability": "view",
      "type": "function"
    },
    {
      "inputs": [],
      "name": "rejectCount",
      "outputs": [
        {
          "internalType": "uint256",
          "name": "",
          "type": "uint256"
        }
      ],
      "stateMutability": "view",
      "type": "function"
    },
    {
      "stateMutability": "payable",
      "type": "receive"
    },
    {
      "inputs": [],
      "name": "getBalance",
      "outputs": [
        {
          "internalType": "uint256",
          "name": "",
          "type": "uint256"
        }
      ],
      "stateMutability": "view",
      "type": "function"
    },
    {
      "inputs": [
        {
          "internalType": "address[]",
          "name": "_handlers",
          "type": "address[]"
        }
      ],
      "name": "addTrustedHandlers",
      "outputs": [],
      "stateMutability": "nonpayable",
      "type": "function"
    },
    {
      "inputs": [],
      "name": "sellerApproveLaunch",
      "outputs": [],
      "stateMutability": "nonpayable",
      "type": "function"
    },
    {
      "inputs": [],
      "name": "sellerMarkDelivered",
      "outputs": [],
      "stateMutability": "nonpayable",
      "type": "function"
    },
    {
      "inputs": [],
      "name": "buyerConfirmDelivery",
      "outputs": [],
      "stateMutability": "nonpayable",
      "type": "function"
    },
    {
      "inputs": [
        {
          "internalType": "uint256",
          "name": "_rejectDuration",
          "type": "uint256"
        }
      ],
      "name": "buyerRejectDelivery",
      "outputs": [],
      "stateMutability": "nonpayable",
      "type": "function"
    },
    {
      "inputs": [],
      "name": "sellerRejectDeliveryRejection",
      "outputs": [],
      "stateMutability": "nonpayable",
      "type": "function"
    },
    {
      "inputs": [],
      "name": "sellerApproveDeliveryRejection",
      "outputs": [],
      "stateMutability": "nonpayable",
      "type": "function"
    },
    {
      "inputs": [],
      "name": "cancel",
      "outputs": [],
      "stateMutability": "nonpayable",
      "type": "function"
    },
    {
      "inputs": [],
      "name": "getDetails",
      "outputs": [
        {
          "components": [
            {
              "internalType": "enum Escrow.EscrowStatus",
              "name": "status",
              "type": "uint8"
            },
            {
              "internalType": "bytes32",
              "name": "title",
              "type": "bytes32"
            },
            {
              "internalType": "uint256",
              "name": "deadline",
              "type": "uint256"
            },
            {
              "internalType": "address payable",
              "name": "buyer",
              "type": "address"
            },
            {
              "internalType": "address payable",
              "name": "seller",
              "type": "address"
            },
            {
              "internalType": "uint256",
              "name": "requestRevisedDeadline",
              "type": "uint256"
            },
            {
              "internalType": "uint256",
              "name": "amount",
              "type": "uint256"
            },
            {
              "internalType": "address",
              "name": "escrowAddress",
              "type": "address"
            },
            {
              "internalType": "uint8",
              "name": "feePercent",
              "type": "uint8"
            }
          ],
          "internalType": "struct Escrow.EscrowDetail",
          "name": "",
          "type": "tuple"
        }
      ],
      "stateMutability": "view",
      "type": "function"
    }
  ],
  "bytecode": "0x60806040525f600a5534801562000014575f80fd5b5060405162002afb38038062002afb83398181016040528101906200003a919062000776565b6201518087101562000083576040517f08c379a00000000000000000000000000000000000000000000000000000000081526004016200007a90620008b7565b60405180910390fd5b5f8260ff1611801562000099575060648260ff16105b620000db576040517f08c379a0000000000000000000000000000000000000000000000000000000008152600401620000d29062000925565b60405180910390fd5b8760095f6101000a81548173ffffffffffffffffffffffffffffffffffffffff021916908373ffffffffffffffffffffffffffffffffffffffff1602179055506001600b5f3373ffffffffffffffffffffffffffffffffffffffff1673ffffffffffffffffffffffffffffffffffffffff1681526020019081526020015f205f6101000a81548160ff02191690831515021790555062000181816200038760201b60201c565b6040518061012001604052805f6006811115620001a357620001a262000945565b5b81526020018681526020018842620001bc91906200099f565b81526020018573ffffffffffffffffffffffffffffffffffffffff1681526020018473ffffffffffffffffffffffffffffffffffffffff1681526020015f81526020018781526020013073ffffffffffffffffffffffffffffffffffffffff1681526020018360ff1681525060015f820151815f015f6101000a81548160ff0219169083600681111562000255576200025462000945565b5b021790555060208201518160010155604082015181600201556060820151816003015f6101000a81548173ffffffffffffffffffffffffffffffffffffffff021916908373ffffffffffffffffffffffffffffffffffffffff1602179055506080820151816004015f6101000a81548173ffffffffffffffffffffffffffffffffffffffff021916908373ffffffffffffffffffffffffffffffffffffffff16021790555060a0820151816005015560c0820151816006015560e0820151816007015f6101000a81548173ffffffffffffffffffffffffffffffffffffffff021916908373ffffffffffffffffffffffffffffffffffffffff1602179055506101008201518160070160146101000a81548160ff021916908360ff160217905550905050505050505050505062000ac0565b600b5f3373ffffffffffffffffffffffffffffffffffffffff1673ffffffffffffffffffffffffffffffffffffffff1681526020019081526020015f205f9054906101000a900460ff1662000413576040517f08c379a00000000000000000000000000000000000000000000000000000000081526004016200040a9062000a27565b60405180910390fd5b5f5b8151811015620004a7576001600b5f8484815181106200043a576200043962000a47565b5b602002602001015173ffffffffffffffffffffffffffffffffffffffff1673ffffffffffffffffffffffffffffffffffffffff1681526020019081526020015f205f6101000a81548160ff02191690831515021790555080806200049e9062000a74565b91505062000415565b5050565b5f604051905090565b5f80fd5b5f80fd5b5f73ffffffffffffffffffffffffffffffffffffffff82169050919050565b5f620004e782620004bc565b9050919050565b620004f981620004db565b811462000504575f80fd5b50565b5f815190506200051781620004ee565b92915050565b5f819050919050565b62000531816200051d565b81146200053c575f80fd5b50565b5f815190506200054f8162000526565b92915050565b5f819050919050565b620005698162000555565b811462000574575f80fd5b50565b5f8151905062000587816200055e565b92915050565b5f60ff82169050919050565b620005a4816200058d565b8114620005af575f80fd5b50565b5f81519050620005c28162000599565b92915050565b5f80fd5b5f601f19601f8301169050919050565b7f4e487b71000000000000000000000000000000000000000000000000000000005f52604160045260245ffd5b6200061482620005cc565b810181811067ffffffffffffffff82111715620006365762000635620005dc565b5b80604052505050565b5f6200064a620004ab565b905062000658828262000609565b919050565b5f67ffffffffffffffff8211156200067a5762000679620005dc565b5b602082029050602081019050919050565b5f80fd5b5f6200069b82620004bc565b9050919050565b620006ad816200068f565b8114620006b8575f80fd5b50565b5f81519050620006cb81620006a2565b92915050565b5f620006e7620006e1846200065d565b6200063f565b905080838252602082019050602084028301858111156200070d576200070c6200068b565b5b835b818110156200073a5780620007258882620006bb565b8452602084019350506020810190506200070f565b5050509392505050565b5f82601f8301126200075b576200075a620005c8565b5b81516200076d848260208601620006d1565b91505092915050565b5f805f805f805f80610100898b031215620007965762000795620004b4565b5b5f620007a58b828c0162000507565b9850506020620007b88b828c016200053f565b9750506040620007cb8b828c016200053f565b9650506060620007de8b828c0162000577565b9550506080620007f18b828c0162000507565b94505060a0620008048b828c0162000507565b93505060c0620008178b828c01620005b2565b92505060e089015167ffffffffffffffff8111156200083b576200083a620004b8565b5b620008498b828c0162000744565b9150509295985092959890939650565b5f82825260208201905092915050565b7f494e56414c49445f4455524154494f4e000000000000000000000000000000005f82015250565b5f6200089f60108362000859565b9150620008ac8262000869565b602082019050919050565b5f6020820190508181035f830152620008d08162000891565b9050919050565b7f494e56414c49445f4645455f50455243454e54000000000000000000000000005f82015250565b5f6200090d60138362000859565b91506200091a82620008d7565b602082019050919050565b5f6020820190508181035f8301526200093e81620008ff565b9050919050565b7f4e487b71000000000000000000000000000000000000000000000000000000005f52602160045260245ffd5b7f4e487b71000000000000000000000000000000000000000000000000000000005f52601160045260245ffd5b5f620009ab826200051d565b9150620009b8836200051d565b9250828201905080821115620009d357620009d262000972565b5b92915050565b7f4f4e4c595f545255535445445f48414e444c4552535f414c4c4f5745440000005f82015250565b5f62000a0f601d8362000859565b915062000a1c82620009d9565b602082019050919050565b5f6020820190508181035f83015262000a408162000a01565b9050919050565b7f4e487b71000000000000000000000000000000000000000000000000000000005f52603260045260245ffd5b5f62000a80826200051d565b91507fffffffffffffffffffffffffffffffffffffffffffffffffffffffffffffffff820362000ab55762000ab462000972565b5b600182019050919050565b61202d8062000ace5f395ff3fe6080604052600436106100c5575f3560e01c8063dc5939371161007e578063f21e0e9911610058578063f21e0e991461029e578063f25f4b56146102b4578063fb6ff96e146102de578063fbbf93a01461030857610176565b8063dc59393714610236578063ea8a1af01461024c578063f17171e91461026257610176565b806312065fe01461017a57806344ad8080146101a45780634d7eb0bf146101ba5780636c06f2ca146101d057806398b2d4fc146101e65780639eb262f31461020e57610176565b3661017657600560015f015f9054906101000a900460ff1660068111156100ef576100ee611342565b5b60ff1610610132576040517f08c379a0000000000000000000000000000000000000000000000000000000008152600401610129906113c9565b60405180910390fd5b5f3411610174576040517f08c379a000000000000000000000000000000000000000000000000000000000815260040161016b90611431565b60405180910390fd5b005b5f80fd5b348015610185575f80fd5b5061018e610332565b60405161019b9190611467565b60405180910390f35b3480156101af575f80fd5b506101b8610339565b005b3480156101c5575f80fd5b506101ce6104e2565b005b3480156101db575f80fd5b506101e4610619565b005b3480156101f1575f80fd5b5061020c600480360381019061020791906114bb565b610805565b005b348015610219575f80fd5b50610234600480360381019061022f9190611690565b6109ec565b005b348015610241575f80fd5b5061024a610b06565b005b348015610257575f80fd5b50610260610c3d565b005b34801561026d575f80fd5b50610288600480360381019061028391906116d7565b610e62565b604051610295919061171c565b60405180910390f35b3480156102a9575f80fd5b506102b2610e7f565b005b3480156102bf575f80fd5b506102c8610fc4565b6040516102d59190611755565b60405180910390f35b3480156102e9575f80fd5b506102f2610fe9565b6040516102ff9190611467565b60405180910390f35b348015610313575f80fd5b5061031c610fef565b60405161032991906118c9565b60405180910390f35b5f47905090565b5f80541461037c576040517f08c379a00000000000000000000000000000000000000000000000000000000081526004016103739061192d565b60405180910390fd5b5f8081548092919061038d90611978565b919050555060016003015f9054906101000a900473ffffffffffffffffffffffffffffffffffffffff1673ffffffffffffffffffffffffffffffffffffffff163373ffffffffffffffffffffffffffffffffffffffff1614610424576040517f08c379a000000000000000000000000000000000000000000000000000000000815260040161041b90611a09565b60405180910390fd5b6003600681111561043857610437611342565b5b60015f015f9054906101000a900460ff16600681111561045b5761045a611342565b5b1461049b576040517f08c379a000000000000000000000000000000000000000000000000000000000815260040161049290611a71565b60405180910390fd5b6104ca60016004015f9054906101000a900473ffffffffffffffffffffffffffffffffffffffff166006611187565b5f808154809291906104db90611a8f565b9190505550565b60016004015f9054906101000a900473ffffffffffffffffffffffffffffffffffffffff1673ffffffffffffffffffffffffffffffffffffffff163373ffffffffffffffffffffffffffffffffffffffff1614610574576040517f08c379a000000000000000000000000000000000000000000000000000000000815260040161056b90611b00565b60405180910390fd5b6002600681111561058857610587611342565b5b60015f015f9054906101000a900460ff1660068111156105ab576105aa611342565b5b146105eb576040517f08c379a00000000000000000000000000000000000000000000000000000000081526004016105e290611b68565b60405180910390fd5b600460015f015f6101000a81548160ff0219169083600681111561061257610611611342565b5b0217905550565b5f80541461065c576040517f08c379a00000000000000000000000000000000000000000000000000000000081526004016106539061192d565b60405180910390fd5b5f8081548092919061066d90611978565b919050555060016004015f9054906101000a900473ffffffffffffffffffffffffffffffffffffffff1673ffffffffffffffffffffffffffffffffffffffff163373ffffffffffffffffffffffffffffffffffffffff1614610704576040517f08c379a00000000000000000000000000000000000000000000000000000000081526004016106fb90611b00565b60405180910390fd5b5f600681111561071757610716611342565b5b60015f015f9054906101000a900460ff16600681111561073a57610739611342565b5b1461077a576040517f08c379a000000000000000000000000000000000000000000000000000000000815260040161077190611bd0565b60405180910390fd5b6001600601544710156107c2576040517f08c379a00000000000000000000000000000000000000000000000000000000081526004016107b990611c38565b60405180910390fd5b6001805f015f6101000a81548160ff021916908360068111156107e8576107e7611342565b5b02179055505f808154809291906107fe90611a8f565b9190505550565b60016003015f9054906101000a900473ffffffffffffffffffffffffffffffffffffffff1673ffffffffffffffffffffffffffffffffffffffff163373ffffffffffffffffffffffffffffffffffffffff1614610897576040517f08c379a000000000000000000000000000000000000000000000000000000000815260040161088e90611a09565b60405180910390fd5b600360068111156108ab576108aa611342565b5b60015f015f9054906101000a900460ff1660068111156108ce576108cd611342565b5b1461090e576040517f08c379a000000000000000000000000000000000000000000000000000000000815260040161090590611a71565b60405180910390fd5b62015180811015610954576040517f08c379a000000000000000000000000000000000000000000000000000000000815260040161094b90611ca0565b60405180910390fd5b600a5f81548092919061096690611978565b91905055506001600a5411156109a757600460015f015f6101000a81548160ff0219169083600681111561099d5761099c611342565b5b02179055506109e9565b600260015f015f6101000a81548160ff021916908360068111156109ce576109cd611342565b5b021790555080426109df9190611cbe565b6001600501819055505b50565b600b5f3373ffffffffffffffffffffffffffffffffffffffff1673ffffffffffffffffffffffffffffffffffffffff1681526020019081526020015f205f9054906101000a900460ff16610a75576040517f08c379a0000000000000000000000000000000000000000000000000000000008152600401610a6c90611d3b565b60405180910390fd5b5f5b8151811015610b02576001600b5f848481518110610a9857610a97611d59565b5b602002602001015173ffffffffffffffffffffffffffffffffffffffff1673ffffffffffffffffffffffffffffffffffffffff1681526020019081526020015f205f6101000a81548160ff0219169083151502179055508080610afa90611978565b915050610a77565b5050565b60016004015f9054906101000a900473ffffffffffffffffffffffffffffffffffffffff1673ffffffffffffffffffffffffffffffffffffffff163373ffffffffffffffffffffffffffffffffffffffff1614610b98576040517f08c379a0000000000000000000000000000000000000000000000000000000008152600401610b8f90611b00565b60405180910390fd5b60016006811115610bac57610bab611342565b5b60015f015f9054906101000a900460ff166006811115610bcf57610bce611342565b5b14610c0f576040517f08c379a0000000000000000000000000000000000000000000000000000000008152600401610c0690611dd0565b60405180910390fd5b600360015f015f6101000a81548160ff02191690836006811115610c3657610c35611342565b5b0217905550565b600360015f015f9054906101000a900460ff166006811115610c6257610c61611342565b5b60ff1610610ca5576040517f08c379a0000000000000000000000000000000000000000000000000000000008152600401610c9c90611e38565b60405180910390fd5b60016003015f9054906101000a900473ffffffffffffffffffffffffffffffffffffffff1673ffffffffffffffffffffffffffffffffffffffff163373ffffffffffffffffffffffffffffffffffffffff161480610d52575060016004015f9054906101000a900473ffffffffffffffffffffffffffffffffffffffff1673ffffffffffffffffffffffffffffffffffffffff163373ffffffffffffffffffffffffffffffffffffffff16145b610d91576040517f08c379a0000000000000000000000000000000000000000000000000000000008152600401610d8890611ea0565b60405180910390fd5b60016003015f9054906101000a900473ffffffffffffffffffffffffffffffffffffffff1673ffffffffffffffffffffffffffffffffffffffff163373ffffffffffffffffffffffffffffffffffffffff1603610e3157426001600201541115610e30576040517f08c379a0000000000000000000000000000000000000000000000000000000008152600401610e2790611f08565b60405180910390fd5b5b610e6060016003015f9054906101000a900473ffffffffffffffffffffffffffffffffffffffff166005611187565b565b600b602052805f5260405f205f915054906101000a900460ff1681565b60016004015f9054906101000a900473ffffffffffffffffffffffffffffffffffffffff1673ffffffffffffffffffffffffffffffffffffffff163373ffffffffffffffffffffffffffffffffffffffff1614610f11576040517f08c379a0000000000000000000000000000000000000000000000000000000008152600401610f0890611b00565b60405180910390fd5b60026006811115610f2557610f24611342565b5b60015f015f9054906101000a900460ff166006811115610f4857610f47611342565b5b14610f88576040517f08c379a0000000000000000000000000000000000000000000000000000000008152600401610f7f90611b68565b60405180910390fd5b6001805f015f6101000a81548160ff02191690836006811115610fae57610fad611342565b5b0217905550600160050154600160020181905550565b60095f9054906101000a900473ffffffffffffffffffffffffffffffffffffffff1681565b600a5481565b610ff76112a5565b6001604051806101200160405290815f82015f9054906101000a900460ff16600681111561102857611027611342565b5b600681111561103a57611039611342565b5b81526020016001820154815260200160028201548152602001600382015f9054906101000a900473ffffffffffffffffffffffffffffffffffffffff1673ffffffffffffffffffffffffffffffffffffffff1673ffffffffffffffffffffffffffffffffffffffff168152602001600482015f9054906101000a900473ffffffffffffffffffffffffffffffffffffffff1673ffffffffffffffffffffffffffffffffffffffff1673ffffffffffffffffffffffffffffffffffffffff1681526020016005820154815260200160068201548152602001600782015f9054906101000a900473ffffffffffffffffffffffffffffffffffffffff1673ffffffffffffffffffffffffffffffffffffffff1673ffffffffffffffffffffffffffffffffffffffff1681526020016007820160149054906101000a900460ff1660ff1660ff1681525050905090565b5f6064600160070160149054906101000a900460ff1660ff166001600601546111b09190611f26565b6111ba9190611f94565b905060095f9054906101000a900473ffffffffffffffffffffffffffffffffffffffff1673ffffffffffffffffffffffffffffffffffffffff166108fc8290811502906040515f60405180830381858888f19350505050158015611220573d5f803e3d5ffd5b508273ffffffffffffffffffffffffffffffffffffffff166108fc8260016006015461124c9190611fc4565b90811502906040515f60405180830381858888f19350505050158015611274573d5f803e3d5ffd5b508160015f015f6101000a81548160ff0219169083600681111561129b5761129a611342565b5b0217905550505050565b6040518061012001604052805f60068111156112c4576112c3611342565b5b81526020015f80191681526020015f81526020015f73ffffffffffffffffffffffffffffffffffffffff1681526020015f73ffffffffffffffffffffffffffffffffffffffff1681526020015f81526020015f81526020015f73ffffffffffffffffffffffffffffffffffffffff1681526020015f60ff1681525090565b7f4e487b71000000000000000000000000000000000000000000000000000000005f52602160045260245ffd5b5f82825260208201905092915050565b7f4e4f545f454c494749424c4500000000000000000000000000000000000000005f82015250565b5f6113b3600c8361136f565b91506113be8261137f565b602082019050919050565b5f6020820190508181035f8301526113e0816113a7565b9050919050565b7f494e56414c49445f414d4f554e540000000000000000000000000000000000005f82015250565b5f61141b600e8361136f565b9150611426826113e7565b602082019050919050565b5f6020820190508181035f8301526114488161140f565b9050919050565b5f819050919050565b6114618161144f565b82525050565b5f60208201905061147a5f830184611458565b92915050565b5f604051905090565b5f80fd5b5f80fd5b61149a8161144f565b81146114a4575f80fd5b50565b5f813590506114b581611491565b92915050565b5f602082840312156114d0576114cf611489565b5b5f6114dd848285016114a7565b91505092915050565b5f80fd5b5f601f19601f8301169050919050565b7f4e487b71000000000000000000000000000000000000000000000000000000005f52604160045260245ffd5b611530826114ea565b810181811067ffffffffffffffff8211171561154f5761154e6114fa565b5b80604052505050565b5f611561611480565b905061156d8282611527565b919050565b5f67ffffffffffffffff82111561158c5761158b6114fa565b5b602082029050602081019050919050565b5f80fd5b5f73ffffffffffffffffffffffffffffffffffffffff82169050919050565b5f6115ca826115a1565b9050919050565b6115da816115c0565b81146115e4575f80fd5b50565b5f813590506115f5816115d1565b92915050565b5f61160d61160884611572565b611558565b905080838252602082019050602084028301858111156116305761162f61159d565b5b835b81811015611659578061164588826115e7565b845260208401935050602081019050611632565b5050509392505050565b5f82601f830112611677576116766114e6565b5b81356116878482602086016115fb565b91505092915050565b5f602082840312156116a5576116a4611489565b5b5f82013567ffffffffffffffff8111156116c2576116c161148d565b5b6116ce84828501611663565b91505092915050565b5f602082840312156116ec576116eb611489565b5b5f6116f9848285016115e7565b91505092915050565b5f8115159050919050565b61171681611702565b82525050565b5f60208201905061172f5f83018461170d565b92915050565b5f61173f826115a1565b9050919050565b61174f81611735565b82525050565b5f6020820190506117685f830184611746565b92915050565b6007811061177f5761177e611342565b5b50565b5f81905061178f8261176e565b919050565b5f61179e82611782565b9050919050565b6117ae81611794565b82525050565b5f819050919050565b6117c6816117b4565b82525050565b6117d58161144f565b82525050565b6117e481611735565b82525050565b6117f3816115c0565b82525050565b5f60ff82169050919050565b61180e816117f9565b82525050565b61012082015f8201516118295f8501826117a5565b50602082015161183c60208501826117bd565b50604082015161184f60408501826117cc565b50606082015161186260608501826117db565b50608082015161187560808501826117db565b5060a082015161188860a08501826117cc565b5060c082015161189b60c08501826117cc565b5060e08201516118ae60e08501826117ea565b506101008201516118c3610100850182611805565b50505050565b5f610120820190506118dd5f830184611814565b92915050565b7f5265656e7472616e6379206465746563746564000000000000000000000000005f82015250565b5f61191760138361136f565b9150611922826118e3565b602082019050919050565b5f6020820190508181035f8301526119448161190b565b9050919050565b7f4e487b71000000000000000000000000000000000000000000000000000000005f52601160045260245ffd5b5f6119828261144f565b91507fffffffffffffffffffffffffffffffffffffffffffffffffffffffffffffffff82036119b4576119b361194b565b5b600182019050919050565b7f4f4e4c595f42555945525f414c4c4f57454400000000000000000000000000005f82015250565b5f6119f360128361136f565b91506119fe826119bf565b602082019050919050565b5f6020820190508181035f830152611a20816119e7565b9050919050565b7f4e4f545f494e5f44454c4956455245445f5354415455530000000000000000005f82015250565b5f611a5b60178361136f565b9150611a6682611a27565b602082019050919050565b5f6020820190508181035f830152611a8881611a4f565b9050919050565b5f611a998261144f565b91505f8203611aab57611aaa61194b565b5b600182039050919050565b7f4f4e4c595f53454c4c45525f414c4c4f574544000000000000000000000000005f82015250565b5f611aea60138361136f565b9150611af582611ab6565b602082019050919050565b5f6020820190508181035f830152611b1781611ade565b9050919050565b7f4e4f545f494e5f524551554553545f524556495345445f5354415455530000005f82015250565b5f611b52601d8361136f565b9150611b5d82611b1e565b602082019050919050565b5f6020820190508181035f830152611b7f81611b46565b9050919050565b7f4e4f545f494e5f4c41554e434845445f535441545553000000000000000000005f82015250565b5f611bba60168361136f565b9150611bc582611b86565b602082019050919050565b5f6020820190508181035f830152611be781611bae565b9050919050565b7f494e53554646494349454e545f46554e445300000000000000000000000000005f82015250565b5f611c2260128361136f565b9150611c2d82611bee565b602082019050919050565b5f6020820190508181035f830152611c4f81611c16565b9050919050565b7f494e56414c49445f52454a4543545f4455524154494f4e0000000000000000005f82015250565b5f611c8a60178361136f565b9150611c9582611c56565b602082019050919050565b5f6020820190508181035f830152611cb781611c7e565b9050919050565b5f611cc88261144f565b9150611cd38361144f565b9250828201905080821115611ceb57611cea61194b565b5b92915050565b7f4f4e4c595f545255535445445f48414e444c4552535f414c4c4f5745440000005f82015250565b5f611d25601d8361136f565b9150611d3082611cf1565b602082019050919050565b5f6020820190508181035f830152611d5281611d19565b9050919050565b7f4e487b71000000000000000000000000000000000000000000000000000000005f52603260045260245ffd5b7f4e4f545f494e5f4f4e474f494e475f53544154555300000000000000000000005f82015250565b5f611dba60158361136f565b9150611dc582611d86565b602082019050919050565b5f6020820190508181035f830152611de781611dae565b9050919050565b7f4e4f545f454c494749424c455f464f525f43414e43454c4c4154494f4e0000005f82015250565b5f611e22601d8361136f565b9150611e2d82611dee565b602082019050919050565b5f6020820190508181035f830152611e4f81611e16565b9050919050565b7f4f4e4c595f42555945525f4f525f53454c4c45525f414c4c4f574544000000005f82015250565b5f611e8a601c8361136f565b9150611e9582611e56565b602082019050919050565b5f6020820190508181035f830152611eb781611e7e565b9050919050565b7f5f5f5f444541444c494e455f4e4f545f455850495245445f5f5f0000000000005f82015250565b5f611ef2601a8361136f565b9150611efd82611ebe565b602082019050919050565b5f6020820190508181035f830152611f1f81611ee6565b9050919050565b5f611f308261144f565b9150611f3b8361144f565b9250828202611f498161144f565b91508282048414831517611f6057611f5f61194b565b5b5092915050565b7f4e487b71000000000000000000000000000000000000000000000000000000005f52601260045260245ffd5b5f611f9e8261144f565b9150611fa98361144f565b925082611fb957611fb8611f67565b5b828204905092915050565b5f611fce8261144f565b9150611fd98361144f565b9250828203905081811115611ff157611ff061194b565b5b9291505056fea264697066735822122095c2708111d0e76561ad8de24cd81f947f1fd50e3028248e1cbcdd6153d97bb764736f6c63430008140033",
  "immutableReferences": {},
  "source": "pragma solidity ^0.8.19;\n\ncontract Escrow {\n\nuint256 private guardCounter;\n\nmodifier nonReentrant() {\n    require(guardCounter == 0, \"Reentrancy detected\");\n    guardCounter++;\n    _;\n    guardCounter--;\n}\n\n    enum EscrowStatus {\n        Launched,\n        Ongoing,\n        RequestRevised,\n        Delivered,\n        Dispute,\n        Cancelled,\n        Complete\n    }\n\n    struct EscrowDetail {\n    EscrowStatus status;\n    bytes32 title;\n    uint256 deadline;\n    address payable buyer;\n    address payable seller;\n    uint256 requestRevisedDeadline;\n    uint256 amount;\n    address escrowAddress;\n    uint8 feePercent;\n    }\n\n    EscrowDetail escrowDetail;\n\n    address payable public feeWallet;\n    uint256 public rejectCount = 0;\n\n    mapping(address => bool) public areTrustedHandlers;\n\n    constructor(\n        address payable _feeWallet,\n        uint256 _duration,\n        uint256 _amount,\n        bytes32 _title,\n        address payable _buyer,\n        address payable _seller,\n        uint8 _feePercent,\n        address[] memory _handlers\n    ) {\n    require(_duration >= 1 days, \"INVALID_DURATION\");\n    require(_feePercent > 0 && _feePercent < 100, \"INVALID_FEE_PERCENT\");\n\n    feeWallet = _feeWallet;\n\n    areTrustedHandlers[msg.sender] = true;\n    addTrustedHandlers(_handlers);\n\n    escrowDetail = EscrowDetail(\n        EscrowStatus.Launched,\n        _title,\n        block.timestamp + _duration,\n        _buyer,\n        _seller,\n        0,\n        _amount,\n        address(this),\n        _feePercent\n        );\n    }\n\n    receive() external payable {\n        require(uint8(escrowDetail.status) < 5, \"NOT_ELIGIBLE\");\n        require(msg.value > 0, \"INVALID_AMOUNT\");\n    }\n\n    function getBalance() public view returns (uint256) {\n        return address(this).balance;\n    }\n\n    function addTrustedHandlers(address[] memory _handlers) public onlyTrusted {\n        for (uint256 i = 0; i < _handlers.length; i++) {\n        areTrustedHandlers[_handlers[i]] = true;\n    }\n    }\n\n    function sendFundsAndUpdateStatus(address payable to, EscrowStatus newStatus) private {\n        uint256 fee = (escrowDetail.amount * escrowDetail.feePercent) / 100;\n        feeWallet.transfer(fee);\n        to.transfer(escrowDetail.amount - fee);\n        escrowDetail.status = newStatus;\n    }\n\n    function sellerApproveLaunch() public nonReentrant onlySeller {\n        require(escrowDetail.status == EscrowStatus.Launched, \"NOT_IN_LAUNCHED_STATUS\");\n        require(address(this).balance >= escrowDetail.amount, \"INSUFFICIENT_FUNDS\");\n\n\n        escrowDetail.status = EscrowStatus.Ongoing;\n    }\n\n    function sellerMarkDelivered() public onlySeller {\n        require(escrowDetail.status == EscrowStatus.Ongoing, \"NOT_IN_ONGOING_STATUS\");\n\n\n        escrowDetail.status = EscrowStatus.Delivered;\n    }\n\n    function buyerConfirmDelivery() public nonReentrant onlyBuyer {\n        require(escrowDetail.status == EscrowStatus.Delivered, \"NOT_IN_DELIVERED_STATUS\");\n\n\n        sendFundsAndUpdateStatus(escrowDetail.seller, EscrowStatus.Complete);\n    }\n\n    function buyerRejectDelivery(uint256 _rejectDuration) public onlyBuyer {\n        require(escrowDetail.status == EscrowStatus.Delivered,\"NOT_IN_DELIVERED_STATUS\");\n        require(_rejectDuration >= 1 days, \"INVALID_REJECT_DURATION\");\n\n\n        rejectCount++;\n\n        if (rejectCount > 1) {\n            escrowDetail.status = EscrowStatus.Dispute;\n        } \n        else {\n            escrowDetail.status = EscrowStatus.RequestRevised;\n            escrowDetail.requestRevisedDeadline = block.timestamp + _rejectDuration;\n        }\n    }\n\n    function sellerRejectDeliveryRejection() public onlySeller {\n        require(escrowDetail.status == EscrowStatus.RequestRevised, \"NOT_IN_REQUEST_REVISED_STATUS\");\n\n\n        escrowDetail.status = EscrowStatus.Dispute;\n    }\n\n    function sellerApproveDeliveryRejection() public onlySeller {\n        require(escrowDetail.status == EscrowStatus.RequestRevised, \"NOT_IN_REQUEST_REVISED_STATUS\");\n\n        escrowDetail.status = EscrowStatus.Ongoing;\n        escrowDetail.deadline = escrowDetail.requestRevisedDeadline;\n    }\n\n    function cancel() public {\n        require(uint8(escrowDetail.status) < 3, \"NOT_ELIGIBLE_FOR_CANCELLATION\");\n        require(msg.sender == escrowDetail.buyer || msg.sender == escrowDetail.seller, \"ONLY_BUYER_OR_SELLER_ALLOWED\");\n\n\n    if (msg.sender == escrowDetail.buyer) {\n        require(escrowDetail.deadline <= block.timestamp, \"___DEADLINE_NOT_EXPIRED___\");\n    }\n\n        sendFundsAndUpdateStatus(escrowDetail.buyer, EscrowStatus.Cancelled);\n    }\n\n    function getDetails() public view returns (EscrowDetail memory) {\n        return escrowDetail;\n    }\n\n    modifier onlyBuyer() {\n        require(msg.sender == escrowDetail.buyer, \"ONLY_BUYER_ALLOWED\");\n        _;\n    }\n\n    modifier onlySeller() {\n        require(msg.sender == escrowDetail.seller, \"ONLY_SELLER_ALLOWED\");\n        _;\n    }\n\n    modifier onlyTrusted() {\n        require(areTrustedHandlers[msg.sender], \"ONLY_TRUSTED_HANDLERS_ALLOWED\");\n        _;\n    }\n}",
  "sourcePath": "/Users/sarangsohail/Desktop/escrowDApp/escrowDapp/contracts/Escrow_contract.sol",
  "compiler": {
    "name": "solc",
    "version": "0.8.20+commit.a1b79de6.Emscripten.clang"
  },
  "schemaVersion": "3.4.14",
  "updatedAt": "2023-08-19T13:01:07.260Z",
  "devdoc": {
    "kind": "dev",
    "methods": {},
    "version": 1
  },
  "userdoc": {
    "kind": "user",
    "methods": {},
    "version": 1
  }
}